:100000000C9425040C9442040C9442040C94420475
:100010000C9442040C9442040C9442040C94420448
:100020000C9442040C9442040C9456250C942826FB
:100030000C948E1B0C9442040C9442040C944204C5
:100040000C9442040C9442040C9442040C94420418
:100050000C9442040C94F61B0C9442040C9442043D
:100060000C9442040C9442040C9442040C944204F8
:100070000C9442040C9442040C9442040C944204E8
:100080000C9442040C9442040C9442040C944204D8
:100090000C9442040C9442040C9442040C944204C8
:1000A0000C9442040C9442040C9442049A049D045F
:1000B000A004A304A604A804AB04DE07E307ED072D
:1000C000E107E607EB07E9073B093D0948093F0956
:1000D00041094309450947094A094C094E0959098B
:1000E000500952095409560958095B09EE10EE10DF
:1000F0002011201157117711E0123E13B9113E1350
:1001000066126612D7123E133E133813731273121F
:1001100073127312731273127312731273127312B7
:100120007312731273127312731273128412911278
:1001300098129F12A912C913C913DB13DB13D21330
:10014000DB13DB13DB13C913C913D713DB13DB1367
:10015000D7139526BC26AE27BC26AE2708272B270B
:10016000AE27812790276572676F646F785F657A25
:100170002F323736373864343830346639326134A8
:100180003935653861204020302E362E3133382DF8
:10019000392D673330326537322D646972747900D6
:1001A0000000F0A129002B00E100E000055800004C
:1001B0001E00140004001D0035443C411F001A00BD
:1001C00016001B00AE00286420000800070006008F
:1001D00052002C68210015000900190051422F0817
:1001E000220017000A00050000000B0839002A0051
:1001F00000002842000018084C002A0000002800D7
:100200000000210B23001C000B00110000004471B2
:10021000240018000D0010005074200B25000C0065
:100220000E00360052002841260012000F00370051
:1002300051002C4327001300330038004F443D6821
:1002400030002F00346231450258000001000100E7
:10025000396201001050000001001E0059003400F6
:100260000100010001001F005A0001000100E2002E
:10027000010020005B00190201002C680100210030
:100280005C00010001000100010022005D00080483
:10029000000001004C000100000001000000180EE9
:1002A000B0000100000001000000210AA5002300A9
:1002B0005E000A000000A800010024005F0030007A
:1002C0000100200A0100250060002F00010001004C
:1002D000010026006100010001000100010027006B
:1002E0006200310001000100010001002D622E00BA
:1002F0000100000001003F0001000100105000005B
:100300003A0040003F083E08010043003B00410026
:100310004008010001002B673C0042004108010039
:10032000AC0001003D004300420801000100010053
:100330003E00440043083C08000001004C0045001A
:10034000000001000000180E010001000000010083
:1003500000002D003F001C070B07110700002004C0
:10036000400018075007100701002E0041000C073D
:1003700052073607010001004200120751073707F4
:1003800001000100430001004F07010001000100CE
:100390002D002E004500010001000000290C29005D
:1003A00001000100010000000100150F111C0901EE
:1003B00001000100FD00FC00F2004B0050000100B4
:1003C000FE00F000F100520051000100FF00FB00B0
:1003D000F3004E004F00010001002C052C032C09F6
:1003E0000000010001000100000001000000180EE3
:1003F000B000A9000000AA0000000100A5006400F0
:10040000FA00F9000000A80001004A00F4003008DA
:100410005001010001004D00F500330C4F010100B7
:1004200001003408340A380A01000100010001000B
:100430000100010001000100005C01000100010059
:100440000100000001000100010001001050000047
:100450000100260721070100010001000100250716
:1004600020070601AE000100010024071F070B0151
:10047000AC000100010023071E071801AB000100BA
:100480000100220727070100000001004C002A009C
:100490000000280000000100010001000000010030
:1004A0000000010001000100010001000000010046
:1004B0000100010001000100010001000100010034
:1004C0000100010001000100010001000100010024
:1004D0000100010001000100010001000100010014
:1004E0000100010001000100010000000100010005
:1004F000010012501050000030001300370034008B
:1005000014500D002D005F005C00590062002D6446
:10051000540060005D005A0019002C68550061000D
:100520005E005B0063000F002F08560057001902A1
:1005300000000B084C002A000000280000001808EA
:100540004C002A00000028000000210A01000100E0
:10055000010001000000010001000100500010092D
:100560000100200A01000100520001000100010009
:100570000100010051000100010001000100010023
:100580004F000100010001004900010001000100CD
:100590000100000000000000000000002A2B2800DD
:1005A0000000000000000000000000000000002922
:1005B000000000002C1E3420212224342627252E62
:1005C000362D3738271E1F2021222324252633339A
:1005D000362E37381F0405060708090A0B0C0D0EC6
:1005E0000F101112131415161718191A1B1C1D2F92
:1005F0003130232D350405060708090A0B0C0D0EB2
:100600000F101112131415161718191A1B1C1D2F71
:100610003130354C000000000000000000000000F8
:1006200000000000000000000000000000000000CA
:1006300000000000000101010101010001010101B0
:1006400000000000000000000000000000000100A9
:10065000010001010101010101010101010101018B
:10066000010101010101010101010101010101007B
:100670000000010100000000000000000000000078
:100680000000000000000000000000000000000169
:100690000101010004033000000016034500720050
:1006A00067006F0044006F007800200045005A008A
:1006B000000016034500720067006F0044006F00E1
:1006C0007800200045005A000000040309040902D4
:1006D0006D00040100A0FA090400000103010100FB
:1006E0000921110100012240000705810308000AC9
:1006F0000904010001030102000921110100012286
:100700004D000705820308000A09040200010300E6
:1007100000000921110100012236000705830308AA
:10072000000A09040300010300000009211101006F
:100730000122390007058403200001120110010085
:10074000000008EDFE071301000102030105010985
:1007500006A101050719E029E7150025019508758F
:100760000181020508190129059505750191029578
:1007700001750391010507190029F7150025019559
:10078000F875018102C005010980A10185021601E9
:10079000002603001A81002A83007510950181004C
:1007A000C0050C0901A1018503160100269C021A4F
:1007B00001002A9C02751095018100C00501090203
:1007C000A1010901A100050919012905150025014B
:1007D00095057501810295017503810105010930B7
:1007E00009311581257F9502750881060938158123
:1007F000257F950175088106050C0A3802158125AB
:100800007F950175088106C0C005010906A1010593
:100810000719E029E7150025019508750181029562
:1008200001750881010508190129059505750191D2
:10083000029501750391010507190029FF1500268E
:10084000FF00950675088100C00011241FBECFEF80
:10085000DAE0DEBFCDBF11E0A0E0B1E0E8EAF0E50C
:1008600002C005900D92AA3DB107D9F723E0AAED89
:10087000B1E001C01D92A035B207E1F70E947D22D0
:100880000C9452280C94000080B38C7080BB81B310
:10089000836F81BB089584B1807F84B985B1807FE7
:1008A00085B98AB1837F8AB98BB1837F8BB93E9832
:1008B00046980895CF93E82F873090F580910001F6
:1008C00090910101892B09F048C0CE2F64E670E0B9
:1008D00080E40E94F1059093010180930001892B2F
:1008E000D1F464E670E082E10E9448069093010131
:1008F00080930001892B79F481E090E001C0880F9A
:10090000CA95EAF764E670E080950E9448069093E5
:1009100001018093000184E690E0CF910C949D0644
:1009200090E0FC013797E730F105B8F4EA5AFF4F41
:100930000C94F627209A289810C0219A29980DC067
:10094000229A2A980AC0239A2B9807C0529A01C06B
:10095000539A5B9802C03E9A4698CF910895CF93E0
:10096000873008F041C08091000190910101892BEE
:1009700009F043C064E670E080E40E94F1059093C2
:10098000010180930001892B11F0C0E027C064E6CB
:1009900070E083E10E94480690930101809300017A
:1009A000892B99F764E670E081E40E94F105909349
:1009B000010180930001892B41F784E690E00E94B9
:1009C000780697FF05C09093010180930001DDCF69
:1009D000C82FC095109201011092000184E690E0AA
:1009E0000E949D068C2F0AC09FB18FB1807F869593
:1009F00086959370892B809501C080E0CF910895F2
:100A0000089508950C9401050E942F0790E090939B
:100A10000101809300010E944B040E9444042BEDCD
:100A200031E0EFE2F2E04EE04E0F119280E090E014
:100A3000D901A80FB91F1C92019686309105C1F704
:100A40002A5F3F4F4E13F1CF0C9456080E942F0798
:100A500090E090930101809300010E944B040E945A
:100A60004404EFE2F2E08EE08E0F11928E13FDCF80
:100A7000089526E0829FC0011124FC01E552FE4F3B
:100A800020E030E080E041E050E09081992319F0CF
:100A90009150908307C0BA01022E01C0660F0A94DC
:100AA000EAF7862B2F5F3F4F31962630310569F7E5
:100AB000089596E0699FB001112420E030E090E0B5
:100AC0004FE0FC01022E02C0F595E7950A94E2F78B
:100AD000E0FF06C0F901E60FF71FE552FE4F408325
:100AE0002F5F3F4F2630310561F70895CF92DF9297
:100AF000EF92FF920F931F93CF93DF9380910001AA
:100B000090910101892B91F08091DA018F5F8093A0
:100B1000DA0181110BC00E942F0790E09093010130
:100B200080930001892B11F40E94C1068FE2C82E28
:100B300082E0D82E96E3E92E92E0F92EC0E08C2FC9
:100B40000E945A0407E00C0F802F0E945A048C2F39
:100B50000E943905182F8C2F0E94AF04F601908156
:100B6000D12FD095D9238123D82B6C2F8D2F892776
:100B70000E945905F601D1936F01802F0E9439051B
:100B8000182F802F0E94AF04F7019081D12FD095AC
:100B9000D9238123D82B602F8D2F89270E945905B7
:100BA000F701D1937F010E944B04CF5FC73039F624
:100BB0000E94620881E0DF91CF911F910F91FF9019
:100BC000EF90DF90CF900895E82FF0E0E15DFD4FCA
:100BD0008081089508951092B9008CE08093B80048
:100BE0000895EF92FF920F931F93CF93DF93182FE7
:100BF000EB011092BC0084EA8093BC000E94C01BF1
:100C00007C019091BC0097FD0EC0CF3F8FEFD807BD
:100C1000C1F30E94C01B8E199F098C179D0788F392
:100C20008EEF9FEF2EC09091B900987F983041F0E1
:100C30009091B900987F903119F08FEF9FEF21C00C
:100C40001093BB0084E88093BC000E94C01B8C0101
:100C50009091BC0097FD0CC0CF3F8FEFD807C1F338
:100C60000E94C01B801B910B8C179D0788F3D8CF67
:100C70008091B900887F883111F08034F1F680E0EE
:100C800090E0DF91CF911F910F91FF90EF90089529
:100C90000F931F93CF93DF93EB018093BB0084E806
:100CA0008093BC000E94C01B8C019091BC0097FDFA
:100CB0000EC0CF3F8FEFD807C1F30E94C01B801B2F
:100CC000910B8C179D0788F38EEF9FEF0CC020913E
:100CD000B900287F81E090E0283211F480E090E0B4
:100CE000919581959109DF91CF911F910F91089571
:100CF0000F931F93CF93DF93EC0184E88093BC00A4
:100D00000E94C01B8C019091BC0097FD0EC0CF3F8C
:100D10008FEFD807C1F30E94C01B801B910B8C176B
:100D20009D0788F38EEF9FEF03C08091BB0090E09A
:100D3000DF91CF911F910F9108950F931F93CF9340
:100D4000DF93EC0184E98093BC000E94C01B8C01FE
:100D50009091BC0094FF0EC0CF3F8FEFD807C1F336
:100D60000E94C01B801B910B8C179D0788F38EEF90
:100D70009FEF02C080E090E0DF91CF911F910F9133
:100D8000089556985E9825982D9826982E9827981D
:100D90002F988FEF90E09093890080938800909334
:100DA0008B0080938A0090938D0080938C00259A0D
:100DB0002D9A2FEF80E792E0215080409040E1F79C
:100DC00000C00000269A2E9A2FEF80E792E0215073
:100DD00080409040E1F700C00000279A2F9A2FEF43
:100DE00080E792E0215080409040E1F700C0000091
:100DF00025982D982FEF80E792E021508040904079
:100E0000E1F700C0000026982E982FEF80E792E0CF
:100E1000215080409040E1F700C0000027982F98B3
:100E200056985E9825982D9826982E9827982F9852
:100E3000089589EA8093800089E080938100249856
:100E40002C983F988AB18F7C8AB96E98479A8BB15B
:100E500080638BB9769A0E94C1060C94000580E2EB
:100E600090E0909301018093000180913D028111F7
:100E70000EC00E94EB0581E080933D022FEF83EDD1
:100E800090E3215080409040E1F700C0000064E60C
:100E900070E080E40E94F1059093010180930001CD
:100EA000892B09F050C064E670E080E00E9448069B
:100EB0009093010180930001892B09F044C064E6FE
:100EC00070E080E00E944806909301018093000149
:100ED000892BC9F564E670E08FE30E944806909381
:100EE000010180930001892B71F584E690E00E9456
:100EF0009D0664E670E080E40E94F1059093010194
:100F000080930001892BF9F464E670E08CE00E9484
:100F100048069093010180930001892BA1F464E6B7
:100F200070E080E00E9448069093010180930001E8
:100F3000892B49F464E670E08FE30E9448069093A1
:100F400001018093000184E690E00E949D0680915B
:100F500000010895611108C0FC018281882321F0FD
:100F600086E691E00E94530880E090E008958E3D6F
:100F70009C4541F4FB018281882329F00E94BF1A1D
:100F800080E0089581E00895CF92DF92EF92FF9282
:100F90006B017C010E94F71956985E9825982D9850
:100FA00026982E9827982F9890E0FC013197E730EB
:100FB000F105A8F4E35AFF4F0C94F627259A2D9AD1
:100FC0000EC0259A2D9A269A2E9A09C0259A2D9AF6
:100FD00004C0259A2D9A269A2E9A279A2F9AC701ED
:100FE000B601FF90EF90DF90CF90089581E00895D3
:100FF0000C94B707CF93282F30E0F901EC56FA4F45
:10100000C491F901EC5EF94F2491222359F081EE4D
:101010000E942B0F8C2F0E942B0F8C2F0E944410AC
:1010200081EE04C08C2F0E942B0F8C2FCF910C943B
:1010300044100F931F93CF93DF93EC01062FFE0113
:101040008491882359F19E012F5F3F4F813041F4F5
:10105000E901F9011491812F0E942B0F812F0DC0FE
:10106000823031F4E901F90184910E942B0F0AC00A
:10107000833031F4E901F90184910E94441002C0E7
:101080000E94FA072196802F8823C9F2EFE9FFE03A
:101090003197F1F700C000008150F6CFDF91CF917A
:1010A0001F910F91089560E00C9419080E94471A4F
:1010B000811106C00E94521A811102C00E94BF1AFB
:1010C0000C9419070C940205282F2F7041F0822FE1
:1010D00090E02A3010F44D9608950697089587E21F
:1010E00090E0089508950C9472080C947308089584
:1010F0000E94B7130E9477082FEF84E39CE02150F1
:1011000080409040E1F700C000000C941C1CFF924E
:101110000F931F93CF93DF938C01FC01C081D1818A
:1011200080916A02811113C08281882349F0CE0127
:101130000E94EA18F82E682FCE010E948D1804C074
:10114000CE010E94BD18F82EBE018F2D04C0CE0125
:101150000E94EA18BE010E94120AEC01B8010E9426
:10116000F807882309F456C1B801CE010E947B0C10
:10117000882309F44FC1C631FCE5DF0739F50E9429
:10118000BB19282FF801828140910201509103017F
:10119000882379F02A7A91E009F490E090933E0256
:1011A000911102C069E201C065E3CA010E941D1BE2
:1011B0000AC080913E02811102C069E201C065E36C
:1011C000CA010E94281B0E94881924C1C7318CE5DE
:1011D000D80708F080C0C130ECE5DE0759F4F8010B
:1011E0008281882309F416C180910903816080936C
:1011F000090310C1C230FCE5DF0758F4C115DC4516
:1012000061F4F8018281882309F404C10E947808FE
:1012100001C1C531ECE5DE0768F081E0809343024F
:1012200080934402C801DF91CF911F910F91FF90ED
:101230000C94F607F80182818823A1F30E94471AD3
:10124000811102C00E94BF1A0E94641A90E090931C
:10125000420380934103FE01E350FC45E231F10576
:1012600030F4EC59FF4F809141030C94F6278091A4
:101270004103816027C0826025C0846023C08061F3
:1012800021C080621FC080641DC080681BC0846054
:10129000886018C08E7F16C08D7F14C08B7F12C0EF
:1012A0008F7E10C08F7D0EC08F7B0CC08F770AC0E1
:1012B0008B7F877F07C087FB222720F991E0922749
:1012C00090FB87F980934103809141030E94681A43
:1012D0000E94B7139FC0C83DFCE5DF0759F5F80130
:1012E0008281882361F0109244020E94C01B909377
:1012F00042028093410280E20E94AC108BC0809138
:101300004402882321F080E20E94B31083C08091C0
:101310004102909142020E94CC1B883C910598F7B3
:1013200080E20E94B31088E20E942B0F88E20E94A4
:10133000441070C0C93D8CE5D80708F056C0C63DC2
:10134000ECE5DE0761F5F8018281882351F0109207
:1013500043020E94C01B9093400280933F0282E0B0
:10136000CBCF0E94BB1985FF05C081E0809343026B
:10137000809344028091430281110FC080913F020B
:10138000909140020E94CC1B883C910530F486E28B
:101390000E942B0F86E20E94441082E0B5CFC73D29
:1013A000DC4509F03ACFF801828181119CCF0E947F
:1013B000BB1981FF05C081E0809343028093440202
:1013C0008091440281119FCF80914102909142020D
:1013D0000E94CC1B883C910508F095CF87E20E94C3
:1013E0002B0F87E20E9444108ECFCB3D8CE5D807AF
:1013F00031F4F8018281882369F080E009C0CC3D96
:10140000DC4509F00ACFF8018281882319F082E0D7
:101410000E94192380E0DF91CF911F910F91FF90DF
:101420000895089596E0799FF001112494E5899F2D
:10143000E00DF11D1124E60FF11DEE0FFF1FEC551D
:10144000FE4F859194910895880F991FFC01E056F5
:10145000FE4F859194910895CF93DF930E94120AD5
:101460000E94DB0BEC01811520E59207F0F5811558
:1014700030E4930708F021C1883E910500F5803ED5
:10148000910508F094C1883A910570F4853A910568
:1014900008F0A3C08130910509F489C108F440C166
:1014A000049708F084C13CC18D3B910508F4A0C0AD
:1014B000803C910508F434C1805C9109F0C081152D
:1014C000904258F4C11581E0D80708F070C1C03FC0
:1014D000D10508F425C1D0656AC1C11590E3D907CB
:1014E00008F0E1C0CE019F70DAC0811525E59207B2
:1014F00008F043C0811534E5930708F0F5C0811565
:1015000042E5940708F5C11581E5D80708F0D8C071
:101510002C2F237081E090E002C0880F991F2A953C
:10152000E2F79C689E0174E0369527957A95E1F77D
:101530002370922BCF70C695C69540E2C49FE00100
:101540001124C82BD92B33C1869586959E01237013
:101550003327C115D34508F0B8C040E2849FC001CD
:101560001124C1E0D0E002C0CC0FDD1F2A95E2F7C4
:101570008C2B9D2BEC01DC681AC181152AE59207A2
:1015800098F4811539E5930708F0B9C0811596459F
:1015900008F4AFC0C11588E5D80708F4C1C0DC2F36
:1015A000CC27C06FD06A03C1C1159BE5D90708F4E9
:1015B000B7C0C1152CE5D20708F4AFC0CE019056D4
:1015C0008115904208F0ACC08D2F8F710E94580C8D
:1015D000DD27D0628F71D82BEAC0853A910509F4D6
:1015E000A2C0863A910509F0A1C0C2E8D0E4DFC0EC
:1015F000883A910509F49DC0893A910509F49CC087
:101600008A3A910509F49BC08B3A910509F49AC076
:101610008C3A910509F499C08B3B910509F498C067
:101620008C3B910509F497C08D3A910509F496C059
:10163000803B910509F495C08E3A910509F494C058
:101640008F3A910509F493C0813B910509F492C04A
:10165000823B910509F491C0833B910509F490C048
:10166000843B910509F48FC0853B910509F48EC038
:10167000863B910509F48DC0873B910509F48CC028
:10168000883B910509F48BC0893B910509F48AC018
:101690008A3B910509F489C0C0E0D4E488C00E9467
:1016A000240AEC0184C0CE019927D3FF03C0EC01CA
:1016B000D86C7DC0EC01D06C7AC0DF70D06A77C086
:1016C000DC2FCC27C16FD06A72C040E2849FC0017A
:1016D0001124C1E0D0E002C0CC0FDD1F2A95E2F753
:1016E000C82BD92BDA6863C0D82FCC27C46FD06A37
:1016F0005EC0CF71DD27DC2FCC27D06258C08F7041
:10170000806E90E0906A24E0D695C7952A95E1F71F
:10171000CF709C013C2BE9014AC0DD27D06647C051
:10172000C0E0D0E044C0C1E8D0E441C0C3E8D0E4A8
:101730003EC0C2EED4E43BC0C9EED4E438C0CAEE29
:10174000D4E435C0C5EBD4E432C0C6EBD4E42FC03A
:10175000C3EBD4E42CC0C4EBD4E429C0C7EBD4E47D
:1017600026C0CCECD4E423C0CDECD4E420C0C3E844
:10177000D5E41DC0CAE8D5E41AC0C2E9D5E417C053
:10178000C4E9D5E414C0C1E2D6E411C0C3E2D6E492
:101790000EC0C4E2D6E40BC0C5E2D6E408C0C6E27F
:1017A000D6E405C0C7E2D6E402C0CAE2D6E4CE0160
:1017B000DF91CF9108958238910549F1B0F48133DA
:1017C000910509F458C048F48932910509F44EC0D6
:1017D0008A32910509F454C008958533910509F4BE
:1017E00040C08933910599F00895833E910529F110
:1017F00038F4803E910591F0823E9105A1F0089564
:10180000863E9105F9F0873E910531F108952091CA
:10181000410320FD3AC021FD38C008958091410365
:1018200080FD35C032C08091410382FF32C080917B
:10183000410384FD30C083EE39C08091410382FDB5
:1018400028C0F5CF8091410383FF27C080914103D9
:1018500084FD21C087EE2AC08091410383FD1DC015
:10186000F5CF8091410385FD1AC01BC080914103D3
:1018700085FD17C014C08091410386FD14C015C0BA
:101880008091410386FD11C00EC080EE0FC089E338
:101890000DC082EE0BC080E009C086EE07C089E271
:1018A00005C085E303C08AE201C081E390E00895AA
:1018B0009091410392FF0DC0282F2871283019F410
:1018C000877F846006C0282F2471243011F48B7F19
:1018D000886093FF0DC0282F2871283119F4877E66
:1018E000846106C0282F2471243111F48B7E886115
:1018F00094FD877E0895CF93DF93813020E892078F
:10190000D0F0FB0122812223B1F0EC01809145024D
:10191000811109C08CE090E00E9410280E949F0C69
:1019200081E0809345020E94A60CCE019F770E9421
:101930006E0D0E94220D81E0DF91CF91089580937A
:101940004602682F8CE090E00C941E28E091020182
:10195000F0910301808180933A0381FF03C081EEFF
:101960000E94441080913A0385FF03C085EE0E94D7
:10197000441080913A0380FF03C080EE0E9444101F
:1019800080913A0384FF03C084EE0E94441080914A
:101990003A0382FF03C082EE0E94441080913A0312
:1019A00086FF03C086EE0E94441080913A0383FFB5
:1019B00003C083EE0E94441080913A0387FF03C066
:1019C00087EE0E94441080914602823001F1A8F413
:1019D0008823C9F0813079F580EE0E942B0F81EECB
:1019E0000E942B0F88E10E942B0F88E10E94441077
:1019F00081EE0E94441080EE1CC0843081F085305E
:101A0000D1F486EE01C082EE0E942B0F14C082EE4C
:101A10000E942B0F87E50E942B0F87E50AC086EEF8
:101A20000E942B0F86EE0E94441088E10E942B0F2B
:101A300088E10E9444108FE39CE90197F1F700C010
:101A40000000089580914602813049F030F08230E4
:101A500021F0853051F486EE06C082EE04C08CE29F
:101A60000E942B0F8CE20E94441080913A0381FF68
:101A700003C081EE0E942B0F80913A0385FF03C0C3
:101A800085EE0E942B0F80913A0380FF03C080EE09
:101A90000E942B0F80913A0384FF03C084EE0E94C2
:101AA0002B0F80913A0382FF03C082EE0E942B0F1E
:101AB00080913A0386FF03C086EE0E942B0F80912F
:101AC0003A0383FF03C083EE0E942B0F80913A03F9
:101AD00087FF03C087EE0C942B0F0895EF92FF92BF
:101AE0001F93CF93DF937C01CCE0D0E097010C2EC5
:101AF00002C0369527950A94E2F7122F1F70812FA6
:101B00000E9464080E942B0F812F0E9464080E948B
:101B100044102497CC3F8FEFD80741F7DF91CF9146
:101B20001F91FF90EF90089590934C0280934B0289
:101B30000895E0914B02F0914C02309721F0019012
:101B4000F081E02D099480E00895E0914B02F0913E
:101B50004C02309721F00280F381E02D0994089522
:101B6000E0914B02F0914C02309721F00480F58116
:101B7000E02D099408952091490230914A0282177C
:101B8000930771F090934A0280934902E0914B02CF
:101B9000F0914C02309721F00680F781E02D0994F6
:101BA000089520914702309148028217930771F0FF
:101BB0009093480280934702E0914B02F0914C02CF
:101BC000309721F00084F185E02D0994089508955F
:101BD0000C94E70D81E008950E94B71B85B78068DB
:101BE00085BF85B7806885BF0E9404050C944E1C94
:101BF000CF92DF92EF92FF920F931F93CF93DF93D9
:101C0000CDB7DEB72B970FB6F894DEBF0FBECDBFB2
:101C10000E9476050E94EA0D811111C08FEF898321
:101C20008A831B820E94C01B8160782F9D838C83D6
:101C300049815A816B818D810E94DC0E56C08EE4F1
:101C4000C82E82E0D82E00E010E0E02E802F0E9407
:101C5000E405F60141916F01F42EF82631F40F5F8F
:101C60001F4F0E30110589F7D9CF9091090391FFCD
:101C700004C08B870E94EA058B8520E030E04F2D61
:101C800050E0922FBA01022E02C0759567950A9412
:101C9000E2F760FF24C02E83EF8221E030E069018B
:101CA00002C0CC0CDD1C9A95E2F790E08C219D21BE
:101CB000892B09F420E028870E94C01B8160782FBF
:101CC0009A8789874E815F8168858A850E94DC0EAC
:101CD000F801E25BFD4F8081C826C08206C02F5FFD
:101CE0003F4F2630310569F6BACF0E94E11D1091B1
:101CF0004D020E94990D1817A1F00E94990D809332
:101D00004D022B960FB6F894DEBF0FBECDBFDF910C
:101D1000CF911F910F91FF90EF90DF90CF900C9497
:101D200075082B960FB6F894DEBF0FBECDBFDF91BE
:101D3000CF911F910F91FF90EF90DF90CF9008957A
:101D4000DC0111962C9111978C91682F70E041E085
:101D500050E001C0440F8A95EAF712968C911297D1
:101D600030E0882329F080916C028823E9F006C0D6
:101D7000F901E45AFD4F90819423B1F086E0829FEF
:101D8000F001839FF00D1124E60FF71FEE0FFF1FE8
:101D9000EC5EFE4F808191818D939C93F901E45A12
:101DA000FD4F8081482B06C0F901E45AFD4F409554
:101DB0008081482340830895CF93DF93CDB7DEB76A
:101DC0002B970FB6F894DEBF0FBECDBF942F4F8375
:101DD000252F588769877A878B874A855B85452BAE
:101DE00021F02F3F09F59F3FF9F4DE01119686E0BF
:101DF000FD0111928A95E9F785E0FE013796019081
:101E00000D928A95E1F749815A816B817C818D81A0
:101E10009E810E945E162B960FB6F894DEBF0FBE11
:101E2000CDBFDF91CF910895CE0107960E94A00EFD
:101E3000DCCFFC01808191810E94291992959F70CD
:101E4000963041F480916C0291E0892780936C0276
:101E500090936B020895CF93DF931F92CDB7DEB7B7
:101E6000882309F40DC1682F8238C1F40E94990DAE
:101E700081FD06C169E380910201909103010E94F6
:101E80001D1B0E9488192FEF81EE94E021508040A5
:101E90009040E1F700C0000069E319C0833811F5F4
:101EA0000E94990D80FDECC063E580910201909144
:101EB00003010E941D1B0E9488192FEF81EE94E000
:101EC000215080409040E1F700C0000063E5809120
:101ED0000201909103010E94281B0F90DF91CF9186
:101EE0000C9488198438C1F40E94990D82FDC8C0F1
:101EF00067E480910201909103010E941D1B0E94E2
:101F000088192FEF81EE94E0215080409040E1F756
:101F100000C0000067E4DBCF8CEF860F813A70F4DD
:101F2000862F69830E94172069818111A9C0809141
:101F30000201909103010E941D1BCFCF80E2860F0A
:101F4000883048F4677081E001C0880F6A95EAF72D
:101F50000E94BE19C2CF8BE5860F833088F4653AA4
:101F600029F0663A31F083E890E005C081E890E01E
:101F700002C082E890E00F90DF91CF910C94BB0DEE
:101F800088E5860F853108F071C0683A61F1693AD9
:101F900069F16A3A71F16B3A79F16C3A81F16B3B14
:101FA00089F16C3B91F16D3A99F1603BA1F16E3A88
:101FB000A9F16F3AB1F1613BB9F1623BC1F1633B09
:101FC000C9F1643BD1F1653BD9F1663BE1F1673B77
:101FD000E9F1683BF1F1693BF9F16A3B09F43FC073
:101FE00080E090E03EC082EE90E03BC089EE90E061
:101FF00038C08AEE90E035C085EB90E032C086EBC9
:1020000090E02FC083EB90E02CC084EB90E029C0DF
:1020100087EB90E026C08CEC90E023C08DEC90E044
:1020200020C083E891E01DC08AE891E01AC082E9EF
:1020300091E017C084E991E014C081E292E011C000
:1020400083E292E00EC084E292E00BC085E292E06F
:1020500008C086E292E005C087E292E002C08AE210
:1020600092E00F90DF91CF910C94D10D603F40F042
:10207000862F0E94E91C0F90DF91CF910C94D61D02
:102080000F90DF91CF910895882309F464C08238BE
:1020900079F40E94990D81FF5EC069E3809102018D
:1020A000909103010E941D1B0E94881969E310C0D2
:1020B0008338B1F40E94990D80FF4DC063E5809193
:1020C0000201909103010E941D1B0E94881963E583
:1020D00080910201909103010E94281B0C948819A1
:1020E000843879F40E94990D82FF35C067E48091AD
:1020F0000201909103010E941D1B0E94881967E450
:10210000E7CF9CEF980F913A10F4682FE1CF90E25F
:10211000980F983050F4877091E001C0990F8A951C
:10212000EAF7892F0E94C419D9CF9BE5980F933005
:1021300020F480E090E00C94BB0D98E5980F953169
:1021400020F480E090E00C94D10D803F20F00E94BC
:10215000511D0C94D61D0895882321F00E94BE19AC
:102160000C9488190895882321F00E94C4190C94B6
:10217000881908958F929F92AF92BF92DF92EF924B
:10218000FF920F931F93CF93DF937C01D62FC72F1E
:10219000FC01058102950F70128111110E94DB195B
:1021A0000E948119882379F0112369F080E28D0F54
:1021B000883048F082E00E946A190E94811991E0FB
:1021C000D82ED92601C0D12CAC2EA2948FE0A82203
:1021D000B12CF501EA58FF4F0C94F6278C2F807F25
:1021E000CF70882311F0C295C07F112399F0CC23C2
:1021F00009F4C8C180E28D0F883010F0D11104C0FD
:102200008C2F0E94BE1903C08C2F0E94CE190E94F1
:102210008819B8C18D2F0E944410CC2309F42EC216
:1022200080E28D0F883010F0D11104C08C2F0E94F5
:10223000C41903C08C2F0E94D4190E9488191EC291
:102240008C2F807FCF70803211F0C295C07FDD234C
:1022500019F0D130C9F021C0112371F0002341F0F1
:10226000013031F40E94F4198C2B0E94EE1906C241
:102270000E94F4198C2B3FC1002319F0013009F49E
:10228000FDC10E94F11911C0112321F0023008F0A4
:10229000F5C107C00111F2C108C0112321F00111DD
:1022A00071C18C2F28C101117EC18C2F2AC18C2FA6
:1022B00086958695837090E0009719F0019761F0FC
:1022C000DDC1112321F08D2F9C2F937002C080E07F
:1022D00090E00E94BB0DE2C1112321F08D2F9C2FB5
:1022E000937002C080E090E00E94D10DD7C111230D
:1022F000F9F0D53F51F0D63F71F0D43FA9F4809169
:102300003B0390913C0381600BC080913B03909113
:102310003C03826005C080913B0390913C03846044
:1023200090933C0380933B038D2F0E94E91C1EC0B9
:10233000D53F51F0D63F71F0D43FA9F480913B03D3
:1023400090913C038E7F0BC080913B0390913C03A6
:102350008D7F05C080913B0390913C038B7F9093D0
:102360003C0380933B038D2F0E94511D0E94D61D7C
:1023700095C18C2F837009F050C011118BC18D2F26
:10238000829586958770880F880F9D2F9F70892E64
:10239000912CA12CB12C082E04C0880C991CAA1CCD
:1023A000BB1C0A94D2F7D4FF14C00FE010E020E069
:1023B00030E0B901A80104C0440F551F661F771F04
:1023C0008A95D2F7CB01BA0160957095809590956A
:1023D00003C060E070E0CB01C695C695C370D0E045
:1023E000C230D10561F0C330D10581F06829792967
:1023F0008A299B29219771F00E94A3174BC1682954
:1024000079298A299B290E94B51744C10E94A317E4
:10241000C501B4010E9491173DC1112319F08C2F01
:10242000817001C08695882309F434C18D2F82956F
:1024300086958770880F880F9D2F9F70892E912C0D
:10244000A12CB12C082E04C0880C991CAA1CBB1C02
:102450000A94D2F7D4FF14C00FE010E020E030E07F
:10246000B901A80104C0440F551F661F771F8A9544
:10247000D2F7CB01BA01609570958095909503C015
:1024800060E070E0CB01C695C695C3704C2F50E05C
:102490004230510569F04330510589F068297929A6
:1024A0008A299B294130510571F00E946818F2C0B9
:1024B000682979298A299B290E947A18EBC00E94F1
:1024C0006818C501B4010E945618E4C08D2F90E031
:1024D000FC01E05EF109E531F10508F04FC0EA5773
:1024E000FF4F0C94F627DF708C2F8F71112331F082
:1024F0000E94EF178D2F0E94AC10C0C00E941018D0
:102500008D2F0E94B310BAC0112339F00111B6C04B
:102510008C2F8F710E943518B1C0023008F0AEC008
:10252000F7CF112339F08C2F8F710E94EF17A6C0BF
:102530001123C9F38C2F8F710E9410189FC0112393
:1025400029F08C2F8F710E94DA1798C00E94D5173E
:1025500095C0112349F0CF718C2F0E94EF1763E0D3
:102560008C2F0E9461198AC081E00E946A19023092
:1025700008F484C082E00E946A1980C0112331F0FF
:10258000002389F28D2F0E942B0F78C0002391F237
:10259000D93349F45FEF67EE73E05150604070400B
:1025A000E1F700C000008D2F0E94441067C04C2F3F
:1025B0004F706D2FC7010E94AA070E9402176EC0BC
:1025C000D23FB1F028F4D03F49F0D13FF9F028C014
:1025D000D43FB9F058F0D53F71F022C0112309F46F
:1025E00047C090916C0281E0892708C081E01827DC
:1025F00010936C023DC011113BC081E080936C02CE
:1026000037C0111135C010926C0232C0112329F06D
:1026100080916B02882329F329C0002311F328C07D
:1026200080916B020023C1F0882341F090916C02ED
:1026300081E0892780936C0210926B028D2F112309
:1026400019F00E942B0F14C00E94441086E0F7017D
:1026500011928A95E9F70CC0882351F0111108C036
:1026600090916C0281E0892780936C0210926B023A
:102670004C2F4F706D2FC7010E94110AF8E0AF1662
:10268000B10441F05CF04AE0A41AB10852E0A5168A
:10269000B10420F40E94990D0E947508DD20E1F03C
:1026A0000E945D1980FD18C0F70112820E9457191F
:1026B0000E94EF17C7010E9478130E945719DF91FB
:1026C000CF911F910F91FF90EF90DF90BF90AF904F
:1026D0009F908F900C941018DF91CF911F910F91C4
:1026E000FF90EF90DF90BF90AF909F908F900895F4
:1026F0000F931F93CF93DF93EC01888199812B81F6
:102700003C81232BB9F09F3F11F48F3F99F0CE010C
:102710000E948708882371F0688179818A810E94EC
:1027200034198C010E948C180E948E17B801CE01BA
:102730000E94BA10DF91CF911F910F9108950E94CE
:10274000DB190E94EB1980910201909103010E9414
:10275000331B0E9488190E947C1E0E94D61D80E0B7
:1027600090E00E94BB0D80E090E00C94D10D0E949F
:10277000CB190C949F130E942919E92FE295EF7051
:10278000F0E03297EE30F105B0F4E556FF4F0C94CF
:10279000F627803F91F018F4803E68F40EC0843F25
:1027A00051F40BC0803E48F0813F29F406C093FBF2
:1027B000882780F9089580E0089581E00895CF93F7
:1027C000DF9300D000D01F92CDB7DEB70F900F90EF
:1027D0000F900F900F90DF91CF910895CF93DF93DB
:1027E00000D000D000D0CDB7DEB726960FB6F89453
:1027F000DEBF0FBECDBFDF91CF9108951F93CF9362
:10280000DF93C0916D0216E080916E02C81799F0B7
:10281000D0E01C9FF0011D9FF00D1124E159FD4FE8
:102820004081518162817381848195810E94EE1380
:102830002196C770E9CFDF91CF911F910895409104
:102840009F025091A0026091A1027091A20280911A
:10285000A3029091A4020C94EE138091A40282959D
:102860008F7009F054C08091A102882309F44FC0F1
:1028700080916D02A0916E0260919F027091A00202
:102880004091A2025091A302B6E08A1709F43FC01A
:1028900090E041155105C1F17F3F11F46F3FA1F167
:1028A000B89FF001B99FF00D1124E159FD4F21812E
:1028B00072132AC02081621327C02281211124C0F3
:1028C000238134812417350710F421503109241B4A
:1028D000350B283C3105C0F42091A4022F702061F3
:1028E0002093A40226E0289FF001299FF00D1124D7
:1028F000EC58FD4F80818F70806180838FE992E07A
:102900000E9478130C94FE1301968770BECF089531
:10291000CF92DF92EF92FF920F931F93CF93DF93AB
:10292000CDB7DEB762970FB6F894DEBF0FBECDBF4E
:102930008C0185E0F801DE011D9601900D928A95CB
:10294000E1F7D8014C9111965C91119712966C9118
:1029500012971396CD90DC90149730919F0270914E
:10296000A0028091A2029091A302009709F46BC18A
:102970007F3F19F43F3F09F466C1E090A102EE20C9
:1029800009F4C0C02091A402C816D90628F0F601A7
:10299000E81BF90BCF0104C0809590958C0D9D1D0F
:1029A000FF24F394883C910578F0F12C207F09F006
:1029B000C6C07C2DD98AC88A89890E94DF138FE915
:1029C00092E00E947813B1C0822F807F09F046C048
:1029D000751314C0341312C0611110C02F70206120
:1029E0002093A4020E941F148FE992E00E947813A2
:1029F0008091A402D80115968C932EC0CD2819F190
:102A00005F3F11F44F3FF9F0F62E61111CC0809129
:102A10006D0220916E0236E0821709F45AC090E0F0
:102A2000389FF001399FF00D1124E159FD4F71815C
:102A3000571306C07081471303C07281711103C020
:102A400001968770E9CFF62E662309F427C180919D
:102A5000A40281608093A402F12C20C1751308C0E8
:102A6000341306C0611104C08091A402D801C3C010
:102A70004D875E878D859E856A8B0E94BB136A8910
:102A80008823E1F16623D1F12091A402822F82955F
:102A90008F7090E0029774F080919F029091A00255
:102AA00098878F831986DB86CA862C87CE01079686
:102AB0000E94781386E0F801AFE9B2E001900D9230
:102AC0008A95E1F70E942D140E941F14FF24F394AD
:102AD000E5C04D875E878D859E850E942919292F27
:102AE00022952F7030E0223031050CF0CBC09F7062
:102AF00009F0C5C0805E883008F4D0C0C8010E94CB
:102B00007813E4CFC816D90608F453C0F601E81BC1
:102B1000F90BCF01883C910508F450C0F12C7C2DB5
:102B2000D98AC88A89890E94DF13EFE9F2E086E03A
:102B3000DF011D928A95E9F70E941F14AFC075133B
:102B400014C0341312C0611110C08091A402F801A6
:102B50008583C8010E94781386E0EFE9F2E0DF0187
:102B60001D928A95E9F7FE2C99C04D875E878D8569
:102B70009E856A8B0E94BB136A89882309F4BECFA5
:102B8000662309F4BBCF2091A402822F82958F7017
:102B900090E002970CF48ECF80919F029091A0025A
:102BA0009A8389831B82DD82CC822E83CE0101969B
:102BB0007FCF809590958C0D9D1DACCFF62E662312
:102BC00009F49CCF75132EC034132CC02091A4029D
:102BD00020FD1FC0822F82958F70D9F0D8011596E5
:102BE0002C9315978F3049F08F5F982F9295907F97
:102BF000822F8F70892B15968C93C8010E947813B1
:102C000086E0F801AFE9B2E001900D928A95E1F714
:102C100093CF86E0F801AFE9B2E001900D928A957A
:102C2000E1F73CC04D875E878D859E850E94BB1372
:102C3000811140CF8091A40281608093A402C801D9
:102C40000E9478132BC0662309F458CF4D875E8706
:102C50008D859E850E94BB13F82E882309F44ECFE4
:102C600086E0F801AFE9B2E001900D928A95E1F7B4
:102C70008FE992E00E94190F0E942D145DCF8111FF
:102C800039CF0CC0243031050CF038CF9F7009F4D7
:102C900031CFF8019581907F09F02CCF8F2D62966E
:102CA0000FB6F894DEBF0FBECDBFDF91CF911F915D
:102CB0000F91FF90EF90DF90CF9008951F93CF93E7
:102CC000DF93CDB7DEB72C970FB6F894DEBF0FBEFB
:102CD000CDBF4F83588769877A878B879C87CE01C2
:102CE00007960E948814882369F08F8198852A8529
:102CF0003B85232BF1F19F3F09F063C08F3F09F023
:102D000060C037C086E0FE013796DE011196019063
:102D10000D928A95E1F76F817885EA85FB8530977A
:102D200041F17F3F11F46F3F21F120916E0230E0BD
:102D3000C90101968770992740916D0250E0841770
:102D4000950709F447C069837A83FD83EC8396E095
:102D5000929FD001939FB00D1124A159BD4FFE0148
:102D6000319601900D929A95E1F780936E020E9440
:102D7000FE1316E080916D0290916E028917C1F1E9
:102D8000189FC001112481599D4F0E9488148823E7
:102D900079F1E0916D021E9FF0011124E159FD4F80
:102DA0004081518162817381848195810E94EE13FB
:102DB00080916D0290E001968770992780936D0253
:102DC000D9CF4F81588569857A858B859C850E94EE
:102DD000EE13CFCF0E94B71310926E0210926D02C5
:102DE000EFE9F2E086E0DF011D928A95E9F7C1CFB5
:102DF0002C960FB6F894DEBF0FBECDBFDF91CF91FA
:102E00001F910895EF92FF920F931F93CF93DF933B
:102E10008C01892B09F46CC0F12CEE24E394E801B9
:102E20002196F8018491843740F4843008F051C031
:102E3000813081F0823019F15BC0853709F444C0DC
:102E4000A8F19CE7980F903708F052C08F770E9446
:102E5000441041C00E5F1F4FFE01C49180E28C0FF1
:102E6000883048F4C7708E2D01C0880FCA95EAF7E4
:102E70000E94DE1914C08C2F0E942B0F2DC00E5FF4
:102E80001F4FFE01C49180E28C0F883058F4C77048
:102E90008E2D01C0880FCA95EAF70E94E4190E949E
:102EA00088191AC08C2F0E94441016C00E5F1F4F45
:102EB000FE01C491CC2381F08FE99FE00197F1F7E7
:102EC00000C00000C150F6CF0E5F1F4FFE01F4900E
:102ED00003C00E942B0F8E018F2D882309F49FCFF2
:102EE000EFE9FFE03197F1F700C000008150F5CF26
:102EF000DF91CF911F910F91FF90EF90089508956A
:102F00000C947F170E9480176093E0027093E10297
:102F10008093E2029093E3020C949F1308950C9423
:102F200082170F931F930091E0021091E10220910C
:102F3000E2023091E302602B712B822B932B1F91C5
:102F40000F910C9482170F931F930091E002109140
:102F5000E1022091E2023091E30260237123822397
:102F600093231F910F910C9482170F931F9300913D
:102F7000E0021091E1022091E2023091E302602729
:102F80007127822793271F910F910C9482170C941D
:102F9000C4070E94C7176093DC027093DD02809320
:102FA000DE029093DF020C949F1360E070E0CB018F
:102FB0000C94C9170F931F9341E050E060E070E05C
:102FC0008A019B0104C0000F111F221F331F8A9525
:102FD000D2F7C901B8011F910F910C94C9170F9333
:102FE0001F9341E050E060E070E004C0440F551FC3
:102FF000661F771F8A95D2F78091DC029091DD02DF
:10300000A091DE02B091DF028A019B01082B192BEF
:103010002A2B3B2BC901B8011F910F910C94C917A2
:103020000F931F9341E050E060E070E004C0440F54
:10303000551F661F771F8A95D2F74095509560956A
:1030400070958091DC029091DD02A091DE02B0913A
:10305000DF028A019B01082319232A233B23C9018C
:10306000B8011F910F910C94C9170F931F9341E062
:1030700050E060E070E004C0440F551F661F771FEA
:103080008A95D2F78091DC029091DD02A091DE0258
:10309000B091DF028A019B01082719272A273B27C5
:1030A000C901B8011F910F910C94C9170F931F9379
:1030B0000091DC021091DD022091DE023091DF02EE
:1030C000602B712B822B932B1F910F910C94C9179E
:1030D0000F931F930091DC021091DD022091DE021C
:1030E0003091DF0260237123822393231F910F917C
:1030F0000C94C9170F931F930091DC021091DD020D
:103100002091DE023091DF0260277127822793270A
:103110001F910F910C94C9170895292F220F920F18
:10312000990F890FA82FA695A695A695877051E0AF
:1031300001C0550F8A95EAF785E0A89FD0011124B8
:1031400020E030E070E0F901EA0FFB1FEB55FD4F86
:103150004081CB01022E02C0969587950A94E2F732
:1031600081709927819584278523842780832F5F09
:103170003F4F2530310539F70895292F220F920F3F
:10318000990F890F682F669566956695982F9770A9
:1031900085E0689FB001112440E050E080E0FA0132
:1031A000E60FF71FEB55FD4F208130E0092E02C0DE
:1031B000369527950A94E2F721703327042E01C033
:1031C000220F0A94EAF7822B4F5F5F4F453051057B
:1031D00031F70895CF92DF92EF92FF920F931F93F2
:1031E000CF93DF938C01C090E002D090E102E09099
:1031F000E202F090E3028091DC029091DD02A09166
:10320000DE02B091DF02C82AD92AEA2AFB2ACFE1DE
:10321000D0E0D701C6010C2E04C0B695A7959795AE
:1032200087950A94D2F780FF06C0B8018C2F0E94C0
:103230002C0A019721F4219760F780E001C08C2FC0
:10324000DF91CF911F910F91FF90EF90DF90CF9082
:103250000895CF93DF93EC010E94EA18BE010E940B
:103260002C0ADF91CF9108951F93CF93DF93EB0149
:1032700090916A02992321F0CB010E94291913C071
:10328000882349F0CB010E94EA18182F682FCE013D
:103290000E948D1804C0CB010E94BD18182FBE01DA
:1032A000812F0E942C0ADF91CF911F910895809168
:1032B000E40285958595859508958091E40287704F
:1032C000089598E0899F90011124262B2093E40211
:1032D0000C94EF172091E402809582238093E402FE
:1032E000982F977069F430E0482F082E000C550B8A
:1032F0002417350729F08595859585950C94101828
:1033000008959091E402977081E009F480E00895B7
:10331000E0910201F0910301809108038083E09124
:103320000201F0910301908180910703892B808332
:10333000E0910201F0910301908180910603892BB5
:1033400080838091E502882381F0E0910201F09171
:1033500003019081892B8083809102019091030168
:103360000E94C11A81111092E50280910201909190
:1033700003010C94A50D8091080308959091080312
:10338000892B8093080308958095909108038923E1
:1033900080930803089510920803089590910703FD
:1033A000892B8093070308958095909107038923C3
:1033B00080930703089510920703089590910603E0
:1033C000892B8093060308958095909106038923A5
:1033D0008093060308951092060308958093E502F2
:1033E00008951092E50208958091E5020895CF9224
:1033F000DF92EF92FF926C01EE24FF24C114D104FE
:10340000E104F10421F0C701B60120E101C020E090
:10341000C72ED82EE92EFF24C114D104E104F104F3
:1034200019F0285FC701B6016B017C0154E0F694E6
:10343000E794D794C7945A95D1F7C114D104E10405
:10344000F10419F02C5FC701B6016B017C0142E069
:10345000F694E794D794C7944A95D1F7C114D10450
:10346000E104F10419F02E5FC701B601DC01CB01C4
:10347000B695A79597958795892B8A2B8B2B09F065
:103480002F5F822FFF90EF90DF90CF90089580E024
:1034900090E00E94182821E08D3E9E4F09F020E028
:1034A000822F089580E090E00E94182821E0019684
:1034B00009F020E0822F089582E090E00C9410281B
:1034C00083E090E00C94102884E090E00C941028A5
:1034D000682F84E090E00C941E28AB01BC018FE0C3
:1034E00090E00C943028AB01BC0183E190E00C9497
:1034F000302860E070E0CB010C94731A60E070E05B
:10350000CB010E946D1A0C94791A6DEE7EEF80E06B
:1035100090E00E943C2860E082E090E00E941E283B
:1035200060E083E090E00E941E281092E00210927A
:10353000E1021092E2021092E30260E084E090E087
:103540000E941E2860E085E090E00E941E2860E056
:1035500086E090E00E941E286FEF87E090E00E94D6
:103560001E2840E050E0BA0188E090E00E94302838
:1035700060E08DE090E00E941E280C947E1A0C946E
:10358000851AFC0131969C01205E3F4F80E09191AD
:1035900091118F5FE217F307D1F708959C01FC01A9
:1035A00032969FEF80E04191461789F09F3F19F4D2
:1035B000411101C0982F8F5F8E31A9F79F3F39F0DD
:1035C000F901E90FF11D97FDFA95628308950895B9
:1035D000FC01329680962081261301C0108231961C
:1035E000E817F907C1F70895262F26952695269501
:1035F0002F3168F4FC01E20FF11D677021E030E02B
:1036000001C0220F6A95EAF78181282B2183089552
:10361000262F2695269526952F3170F4FC01E20F72
:10362000F11D677021E030E001C0220F6A95EAF7D2
:10363000209581812823218308952091130122233D
:1036400029F02091410327FD0C94F41A0C94CE1A12
:1036500020911301222329F02091410327FD0C948E
:10366000081B0C94E81AFC01319680961192E81719
:10367000F907E1F7089508950C943B1B0E943C1B49
:1036800080914703843049F110920A0320E488E1D5
:1036900090E00FB6F894A895809360000FBE209339
:1036A000600080E00E9475080E943C1B83B7817F08
:1036B000846083BF83B7816083BF7894889583B724
:1036C0008E7F83BF0FB6F894A895809160008861C3
:1036D00080936000109260000FBE08950895CF930C
:1036E0000E9426050E9476050E946E1BC0E08C2F6A
:1036F0000E94E405811104C0CF5FCE30C1F701C044
:1037000081E0CF91089508950C94831B0E94B71314
:103710000E94990D0E9475080C94841B1F920F92B1
:103720000FB60F9211248F939F93AF93BF93809105
:103730000A03811113C080913D0390913E03A09133
:103740003F03B09140034196A11DB11D80933D03FD
:1037500090933E03A0933F03B0934003BF91AF917A
:103760009F918F910F900FBE0F901F90189582E040
:1037700084BD93E095BD9AEF97BD80936E00089548
:103780002FB7F89480913D0390913E03A0913F03A1
:10379000B09140032FBF0895CF92DF92EF92FF9236
:1037A0000F931F932FB7F89440913D0350913E0320
:1037B00060913F03709140032FBF6A017B01EE24AB
:1037C000FF248C0120E030E0C016D106E206F306AB
:1037D00010F4415051099A01281B390BC9011F915E
:1037E0000F91FF90EF90DF90CF90089578941F9203
:1037F0000F920FB60F9211248F939F93AF93BF93A5
:1038000080913D0390913E03A0913F03B09140030E
:103810000196A11DB11D80933D0390933E03A0939B
:103820003F03B0934003BF91AF919F918F910F9051
:103830000FBE0F901F901895F89481E08093E000E0
:1038400080E28093D800E9ECF0E010828FE19EE402
:103850000197F1F700C000001DBA109268001CBC6F
:1038600010BE1FBA10927A0010926E0010926F0074
:1038700010927100109272001082ECEBF0E0108256
:1038800014B817B81AB81DB810BA108215B818B8FD
:103890001BB81EB811BA0C94003F08950E94471A35
:1038A000811102C00E94BF1A0E945C1A8093090312
:1038B0000E94641A90E090934203809341030E9417
:1038C000601A682F70E080E090E00C948F17809170
:1038D0000E0380FF0BC06091070185E0689FB00177
:1038E000112475956795759567952BC081FF09C063
:1038F0006091070185E0689FB00111247595679577
:1039000020C082FF07C06091070185E0689FB00179
:10391000112417C090910F039923D1F060910601F3
:10392000961788F72091070185E0289F90011124C0
:10393000929FA001939F500D112470E0CA010E9434
:10394000E2276038710540F46115710539F002C055
:1039500065E070E0862F08958FE7089581E008956F
:1039600080910E0380FF08C06091050170E075959D
:1039700067957595679521C081FF06C06091050127
:1039800070E07595679519C082FF04C060910501CC
:1039900070E010C090910F039923C1F06091040171
:1039A0009617A0F780910501899FC001112470E04E
:1039B0000E94E2276038710528F46115710521F035
:1039C000862F08958FE7089581E0089561E070E003
:1039D000F4CF803F21F40E94671C819504C0813F91
:1039E00029F40E94671C809312030895823F21F4FA
:1039F0000E94671C819504C0833F29F40E94671CC4
:103A0000809311030895893F19F40E94B01C05C0EA
:103A10008A3F31F40E94B01C81958093130308956E
:103A20008B3F21F40E94B01C819504C08C3F29F487
:103A30000E94B01C809314030895843F21F4809168
:103A40001003816017C0853F21F4809110038260CC
:103A500011C0863F21F48091100384600BC0873F22
:103A600021F480911003886005C0883F31F4809173
:103A7000100380618093100308958D3F21F480919D
:103A80000E0381600BC08E3F21F480910E03826093
:103A900005C08F3F29F480910E03846080930E034C
:103AA0000895803F39F48091120387FF6CC0109213
:103AB000120369C0813F29F4809112031816BCF3E8
:103AC00062C090911103823F29F497FF5CC010926D
:103AD000110359C0833F19F41916CCF354C0893F20
:103AE00041F48091130318160CF04DC0109213038B
:103AF0004AC08A3F29F48091130387FF44C0F6CF60
:103B00008B3F39F48091140387FF3DC0109214035A
:103B10003AC08C3F29F4809114031816BCF333C0CB
:103B2000843F21F4809110038E7F17C0853F21F4DC
:103B3000809110038D7F11C0863F21F48091100386
:103B40008B7F0BC0873F21F480911003877F05C0D6
:103B5000883F31F4809110038F7E8093100313C04F
:103B60008D3F21F480910E038E7F0BC08E3F21F498
:103B700080910E038D7F05C08F3F29F480910E0345
:103B80008B7F80930E038091110381110EC0809171
:103B9000120381110AC080911303811106C0809124
:103BA0001403811102C010920F03089580E193E085
:103BB0000E94B00D0E94C01B90930C0380930B03D6
:103BC00008951F93CF93DF9380910B0390910C0383
:103BD0000E94CC1BAC0190910F03992321F02091FE
:103BE000080130E006C020910D038AE0289F900173
:103BF00011244217530708F47BC080911103C09130
:103C00001203D091130310911403811107C0C11145
:103C10006BC0D11169C0111167C06AC09F3F19F014
:103C20009F5F90930F03181624F40E94671C8093E3
:103C300011038091110387FF05C00E94671C8195C5
:103C4000809311031C1624F40E94671C80931203B6
:103C50008091120387FF05C00E94671C81958093A5
:103C60001203309111033323E1F020911203222338
:103C7000C1F045EB3403C0011124892F990F990B32
:103C8000009709F481E08093110335EB2303C00111
:103C90001124892F990F990B009709F481E08093E3
:103CA00012031D1624F40E94B01C8093130380910C
:103CB000130387FF05C00E94B01C819580931303F6
:103CC000111624F40E94B01C8093140380911403F5
:103CD00087FF05C00E94B01C819580931403DF917B
:103CE000CF911F910C94D61D9F3F09F099CFA1CF82
:103CF000DF91CF911F910895E0E1F3E085E0DF01CE
:103D00001D928A95E9F710920F0310920E03089501
:103D1000833081F128F4813059F08230D1F0089558
:103D2000853009F449C0B8F1863009F456C00895C9
:103D300080910D03262F30E0280F311D2F3F3105D4
:103D400024F4680F60930D0308958FEF80930D03A3
:103D5000089580910801262F30E0280F311D2F3F54
:103D6000310524F4680F6093080108958FEF809364
:103D70000801089580910701262F30E0280F311D9A
:103D80002F3F310524F4680F6093070108958FEFEA
:103D900080930701089580910601262F30E0280FB7
:103DA000311D2F3F310524F4680F609306010895FB
:103DB0008FEF80930601089580910501262F30E052
:103DC000280F311D2F3F310524F4680F6093050142
:103DD00008958FEF80930501089580910401262FA7
:103DE00030E0280F311D2F3F310524F4680F609318
:103DF000040108958FEF809304010895833011F139
:103E000028F4813049F0823091F00895853081F1B5
:103E100020F18630C1F1089580910D03681720F4D8
:103E2000861B80930D03089510920D0308958091D1
:103E30000801681720F4861B8093080108951092EA
:103E40000801089580910701681720F4861B80936C
:103E500007010895109207010895809106016817DF
:103E600020F4861B809306010895109206010895A0
:103E700080910501681720F4861B80930501089541
:103E800010920501089580910401681720F4861BA3
:103E90008093040108951092040108950F931F93D5
:103EA000873208F04DC08E3108F093C0803109F49C
:103EB0007DC008F5873009F46BC068F4863009F0DE
:103EC000A3C080910903817F8E7F8093090381E0E5
:103ED000809316039AC08B3009F48FC08E3009F09E
:103EE00093C08091090382FB222720F991E0922759
:103EF00090FB82F964C0863109F47FC088F4813177
:103F000009F082C00E94B7138091410387FB2227EA
:103F100020F991E0922790FB87F9809341036DC0CF
:103F2000893109F46AC08B3109F06EC080910903B0
:103F300081FB222720F991E0922790FB81F93FC075
:103F4000883309F45AC050F4893209F458C08533D3
:103F500009F455C0873209F452C056C0833409F4BD
:103F60004EC028F48A3308F44FC0895333C08834D4
:103F700009F04AC00E94B7130FEF13ED20E3015080
:103F800010402040E1F700C000000E941C1C35C01A
:103F900080910903982F9095917090FB80F9809300
:103FA000090391112AC0897F877F10C0809109037E
:103FB00083FB222720F991E0922790FB83F98093DD
:103FC00009039923D1F0809109038160809309034B
:103FD00014C08D5141E050E060E070E08A019B0127
:103FE00004C0000F111F221F331F8A95D2F7C90189
:103FF000B8010E948F170E94B71381E006C061E0EC
:1040000070E080E090E0F5CF80E01F910F9108957F
:1040100080E0089580E008958E518A3030F4E82FD2
:10402000F0E0E454FE4F8081089580E00895CF933E
:10403000C82F80911603813079F018F08230E9F1B1
:1040400085C0E0910201F09103018081813169F026
:10405000823209F07DC009C0E0910201F0910301B4
:104060008081813111F0823261F48C2F0E9408200E
:10407000811104C08C2F0E944E1F1DC081E090E072
:104080001AC08C2F0E940A20811114C0C43179F00B
:1040900048F4CB3079F0C03109F05EC082E0809303
:1040A000160308C0C93219F0C83321F055C0109268
:1040B000160352C081E0817051C0C93279F108F510
:1040C000C43161F1A0F4C73009F044C010920D036F
:1040D0008AE080930801C09307018CE38093060176
:1040E00088E08093050188E28093040133C082EE6A
:1040F0008C0F863078F58C2F0E940C20809315034E
:1041000029C0CE34E9F020F4CB3421F56AE013C0A5
:10411000C13579F0C235F1F461E00DC0809115032D
:10412000882319F01092150315C081E080931603BF
:1041300015C061E006C0809115030E94881E0AC068
:104140006AE0809115030E94FE1E04C010921603BF
:1041500080E004C081E002C080E0ADCFCF9108953F
:104160008091370308950F931F93CF93DF9300D06F
:104170001F92CDB7DEB78C010E942923823011F047
:10418000843019F593E099831B830A839093E900A7
:104190008FEF9091E800815095FD06C095ED9A95BE
:1041A000F1F700008111F5CF8091E80085FF0DC087
:1041B00040E050E063E070E0CE0101960E944623AB
:1041C0008091E8008E778093E8000F900F900F9019
:1041D000DF91CF911F910F910895CF93DF9300D07E
:1041E0001F92CDB7DEB720914703243031F522E08E
:1041F0002983805891099B838A8383E08093E90017
:104200008FEF9091E800815095FD06C095ED9A954D
:10421000F1F700008111F5CF8091E80085FF0DC016
:1042200040E050E063E070E0CE0101960E9446233A
:104230008091E8008E778093E8000F900F900F90A8
:10424000DF91CF910895CF93DF93EC010E94292352
:10425000823011F08430F9F482E08093E9009FEF1E
:104260008091E800915085FD06C085ED8A95F1F7B3
:1042700000009111F5CF8091E80085FF0CC040E06F
:1042800050E065E070E0CE010E9446238091E80096
:104290008E778093E800DF91CF910895CF93DF93DD
:1042A000EC010E942923823019F0843009F047C0C4
:1042B000809113018823E1F08091410387FF18C0AA
:1042C00084E08093E9008FEF9091E800815095FDA4
:1042D00006C095E19A95F1F700008111F5CF809124
:1042E000E80085FF2CC040E050E060E270E017C0BD
:1042F00081E08093E9008FEF9091E800815095FD77
:1043000006C095ED9A95F1F700008111F5CF8091E7
:10431000E80085FF14C040E050E068E070E0CE01A6
:104320000E9446238091E8008E778093E80080E227
:10433000FE01A7E1B3E001900D928A95E1F7DF91CC
:10434000CF91089580914603811109C00E94DB241A
:104350000E9438258091E20084608093E2000895F5
:10436000109246030895089508950C94861B42E028
:1043700061EC81E00E94552442E061EC82E00E9401
:10438000552442E061EC83E00E94552442E261EC56
:1043900084E00C94552480914903833009F455C07E
:1043A00030F4813071F0823009F48EC008958A3083
:1043B00009F47AC08B3009F460C0893009F09CC0E0
:1043C00020C080914803813A09F096C08091E800AE
:1043D000877F8093E80080914C0390914D03892B57
:1043E00021F460E287E193E003C060E080E090E0C8
:1043F00070E00E9491238091E8008B778093E80021
:10440000089580914803813209F076C080914C0371
:1044100090914D03009719F0039709F06DC08091BA
:10442000E800877F8093E8008091E80082FD05C066
:10443000809147038111F8CF5FC08091F100809394
:1044400037038091E8008B7753C080914803813A0D
:1044500009F052C080914C0390914D03892B09F0D3
:104460004BC08091E800877F8093E8008091E8004E
:1044700080FFFCCF8091130136C0809148038132C8
:10448000D9F580914C0390914D03892BA9F580912A
:10449000E800877F8093E8000E948A2480914A0385
:1044A000809313010C94B71380914803813221F556
:1044B0008091E800877F8093E8000E948A248091A1
:1044C0004B0380933803089580914803813AA1F407
:1044D0008091E800877F8093E8008091E80080FF6A
:1044E000FCCF809138038093F1008091E8008E77B3
:1044F0008093E8000C948A24089584B7877F84BF52
:104500000FB6F894A8958091600088618093600050
:10451000109260000FBE80E88093610010926100ED
:104520000E94E80D0E94DB240E9438258091E20061
:1045300084608093E20078940E94C7270E94EC0D6B
:1045400089E091E00E94940D80914703853069F4E1
:104550000E943E1B809145038823B1F30E946F1B8C
:10456000882391F30E943023EFCF0E94F80DECCF07
:104570000C94BA22292F332723303105C9F064F473
:104580002130310581F02230310509F049C08DE636
:1045900090E02EEC36E048C02132310521F1223284
:1045A000310571F13DC082E190E02BE337E03CC082
:1045B00099278130910571F02CF4892B89F5EAEC6B
:1045C000F6E00DC08230910541F0039749F5E4E92A
:1045D000F6E005C0E2EBF6E002C0EAE9F6E084911D
:1045E00090E09F0121C064307105D0F4660F771F01
:1045F000FB01EE52FE4F2081318189E090E014C032
:104600006430710568F4FB01EE0FFF1FE653FE4FA7
:1046100020813181FB01EA53FE4F808190E004C08C
:1046200080E090E020E030E0FA01318320830895BB
:104630000895CF93C82F0E941823C0933903CF91B8
:10464000089580914703843011F081E0089582E05D
:10465000089580913903811102C00C94212308959B
:1046600080E189BD82E189BD09B400FEFDCF809162
:10467000D8008F7D8093D8008091E0008260809385
:10468000E0008091E00081FDFCCF0895CF92DF92A1
:10469000EF92FF920F931F93CF93DF93EC018B0167
:1046A0006A010E94A924811133C0C114D10439F0D8
:1046B000F60180819181081B190BC80FD91FE12CCD
:1046C000F12C0115110519F18091E80085FD16C046
:1046D0008091E8008E778093E800C114D10449F0FE
:1046E000F60180819181E80EF91EF182E08285E079
:1046F0000FC00E94A924882321F30AC089918093C6
:10470000F10001501109FFEFEF1AFF0ADACF80E044
:10471000DF91CF911F910F91FF90EF90DF90CF909D
:10472000089520914E0330914F032617370748F024
:104730006115710539F42091E8002E772093E80087
:1047400001C0B90140E061157105A9F1209147034D
:10475000222309F443C0253009F442C02091E80027
:1047600023FD40C02091E80022FD32C02091E800E6
:1047700020FFE9CF4091F3002091F20030E0342B8C
:10478000FC01CF016115710559F02830310540F465
:1047900081918093F100615071092F5F3F4FF1CFFC
:1047A00041E02830310509F040E02091E8002E7703
:1047B0002093E800C8CF4111C9CF0AC080914703B8
:1047C000882361F0853061F08091E80083FD0AC0A4
:1047D0008091E80082FFF2CF80E0089582E00895A2
:1047E00083E0089581E0089520914E0330914F03B6
:1047F0002617370748F06115710539F42091E80054
:104800002E772093E80001C0B901FC0120E061157A
:10481000710591F180914703882309F440C08530E8
:1048200009F43FC08091E80083FD3DC08091E8001D
:1048300082FD2FC08091E80080FFE9CF2091F30036
:104840008091F20090E0922B6115710559F088304B
:10485000910540F424912093F10031966150710943
:104860000196F2CF21E0089709F020E08091E8005E
:104870008E778093E800CBCF2111CCCF0AC08091F6
:104880004703882361F0853061F08091E80083FD63
:104890000AC08091E80082FFF2CF80E0089582E0B4
:1048A000089583E0089581E00895982F973058F592
:1048B0009093E900981739F07091EC002091ED0089
:1048C0005091F00003C0242F762F50E021FF19C033
:1048D0003091EB003E7F3093EB003091ED003D7F57
:1048E0003093ED003091EB0031603093EB0070932A
:1048F000EC002093ED005093F0002091EE0027FF94
:1049000007C09F5FD3CF8F708093E90081E0089547
:1049100080E008958091480387FF11C08091E800EE
:1049200082FD05C0809147038111F8CF11C08091AD
:10493000E8008B770BC080914703882349F0809172
:10494000E80080FFF8CF8091E8008E778093E80040
:1049500008952091E4003091E50095E64091EC0047
:10496000842F817040FF22C08091E80080FD1CC030
:1049700080914703882391F0853091F08091EB007E
:1049800085FD10C04091E4005091E50042175307A7
:1049900029F39A01915011F784E0089582E0089577
:1049A00083E0089581E0089580E008954091E80053
:1049B00042FFDECF08950E9449250E945125E0EE76
:1049C000F0E0808181608083E8EDF0E080818F7786
:1049D000808319BCA7EDB0E08C918E7F8C93808191
:1049E0008F7E80831092460308950F931F93CF9379
:1049F000DF930E9449250E945125C8EDD0E08881AF
:104A00008F77888388818068888388818F7D888379
:104A100019BC109247031092430310924503109261
:104A2000440300EE10E0F80180818B7F8083888151
:104A30008160888342E060E080E00E945524E1EEDE
:104A4000F0E080818E7F8083E2EEF0E08081816003
:104A50008083808188608083F80180818E7F80835D
:104A6000888180618883DF91CF911F910F91089594
:104A7000E8EDF0E080818F7E8083E7EDF0E08081DB
:104A80008160808384E082BF81E0809346030C9440
:104A9000F524E8EDF0E080818E7F80831092E200C3
:104AA00008951092DA001092E10008951F920F927B
:104AB0000FB60F9211242F933F934F935F936F93F1
:104AC0007F938F939F93AF93BF93EF93FF938091C7
:104AD000E10082FF0BC08091E20082FF07C080915D
:104AE000E1008B7F8093E1000E94C6278091DA006D
:104AF00080FF1FC08091D80080FF1BC08091DA002A
:104B00008E7F8093DA008091D90080FF0DC080E114
:104B100089BD82E189BD09B400FEFDCF81E08093AB
:104B200047030E94A22105C019BC109247030E94AE
:104B3000B0218091E10080FF19C08091E20080FFE8
:104B400015C08091E2008E7F8093E2008091E200A8
:104B500080618093E2008091D80080628093D800C9
:104B600019BC85E0809347030E94B4218091E10045
:104B700084FF30C08091E20084FF2CC080E189BDB9
:104B800082E189BD09B400FEFDCF8091D8008F7D00
:104B90008093D8008091E1008F7E8093E100809126
:104BA000E2008F7E8093E2008091E200816080933A
:104BB000E20080914303882311F084E007C08091D4
:104BC000E30087FD02C081E001C083E080934703DA
:104BD0000E94B5218091E10083FF29C08091E2000D
:104BE00083FF25C08091E100877F8093E10082E010
:104BF00080934703109243038091E1008E7F80935E
:104C0000E1008091E2008E7F8093E2008091E200DB
:104C100080618093E20042E060E080E00E945524E1
:104C20008091F00088608093F0000E94B321FF9192
:104C3000EF91BF91AF919F918F917F916F915F9114
:104C40004F913F912F910F900FBE0F901F9018958D
:104C50001F920F920FB60F9211242F933F934F93F1
:104C60005F936F937F938F939F93AF93BF93CF93F4
:104C7000DF93EF93FF93C091E900CF708091EC0038
:104C8000D82FD17080FDD0E81092E9008091F0001B
:104C9000877F8093F00078940E946C261092E90040
:104CA0008091F00088608093F000CD2BCF70C0938E
:104CB000E900FF91EF91DF91CF91BF91AF919F916B
:104CC0008F917F916F915F914F913F912F910F90B5
:104CD0000FBE0F901F9018951F93CF93DF93CDB702
:104CE000DEB7AA970FB6F894DEBF0FBECDBFE8E4DB
:104CF000F3E088E08E0F9091F10091938E13FBCF3B
:104D00000E94CB218091E80083FF28C18091480355
:104D100090914903492F50E04A30510508F01EC1D7
:104D2000FA01E755FF4F0C94F627803821F08238BE
:104D300009F014C108C08091440390914503992360
:104D400089F082600FC080914C038F70873008F02B
:104D500005C18093E9008091EB0085FB882780F9ED
:104D60001092E9009091E800977F9093E80080937B
:104D7000F1001092F100D0C0282F2D7F09F0EEC075
:104D8000882319F0823061F0E9C080914A038130B4
:104D900009F0E4C0933009F080E0809345032EC011
:104DA00080914A0381112AC080914C038F702FEFAC
:104DB000280F263008F0D2C08093E9002091EB0044
:104DC00020FF1CC0933021F48091EB00806214C05E
:104DD0009091EB0090619093EB0021E030E0A9010D
:104DE00002C0440F551F8A95E2F74093EA001092E3
:104DF000EA008091EB0088608093EB001092E9005C
:104E00008091E800877F8093E8000E948A24A6C0F2
:104E10008111A4C010914A031F778091E30080782C
:104E2000812B8093E3008091E800877F8093E800E6
:104E30000E948A248091E80080FFFCCF8091E300EB
:104E400080688093E300111102C082E001C083E01A
:104E50008093470383C08058823008F07FC08091E0
:104E60004A0390914B038C3D53E0950779F583E01D
:104E70008A838AE289834FB7F894DE01139620E093
:104E80003EE051E2E32FF0E050935700E49120FF21
:104E900003C0E295EF703F5FEF708E2F90E0EA3035
:104EA00010F0C79601C0C0968D939D932F5F24315B
:104EB00049F74FBF8091E800877F8093E8006AE25E
:104EC00070E0CE0101960E94912315C060914C03C1
:104ED00070914D03AE014F5F5F4F0E94B822BC013D
:104EE000892BE1F19091E800977F9093E800898108
:104EF0009A810E94F4238091E8008B778093E800E8
:104F00002DC0803859F58091E800877F8093E800B4
:104F1000809143038093F1008091E8008E7773CFF6
:104F200081111CC090914A039230C0F48091E80036
:104F3000877F8093E800909343030E948A248091A6
:104F40004303811106C08091E30087FD02C081E028
:104F500001C084E0809347030E94B7218091E8005C
:104F600083FF0AC08091E800877F8093E8008091EA
:104F7000EB0080628093EB00AA960FB6F894DEBF38
:104F80000FBECDBFDF91CF911F9108950895CF93AC
:104F9000809147038823A1F0C091E900CF709091E0
:104FA000EC00892F817090FD80E8C82B1092E900F9
:104FB0008091E80083FD0E946C26CF70C093E900C9
:104FC000CF91089597FB072E16F4009407D077FD34
:104FD00009D00E94FC2707FC05D03EF490958195EE
:104FE0009F4F0895709561957F4F0895EE0FFF1FB5
:104FF0000590F491E02D0994AA1BBB1B51E107C059
:10500000AA1FBB1FA617B70710F0A61BB70B881F58
:10501000991F5A95A9F780959095BC01CD010895E7
:10502000F999FECF92BD81BDF89A992780B5089570
:10503000A8E1B0E042E050E00C944428262FF99912
:10504000FECF92BD81BDF89A019700B4021639F0E7
:105050001FBA20BD0FB6F894FA9AF99A0FBE0895B8
:105060000396272F0E941F280E941E28252F0E948A
:105070001F28242F0C941F280196272F0E941F28D9
:105080000C941E28DC01CB01FC01F999FECF06C06F
:10509000F2BDE1BDF89A319600B40D9241505040F6
:0850A000B8F70895F894FFCF62
:1050A8002000E60228083C070AB0204E212321ED03
:1050B80020B32001000D010D020D030D040D050D97
:1050C800000C010C020C030C040C050C000B010B6A
:1050D800020B030B040B050B000A010A020A030A60
:1050E800040A050A00090109020903090409050956
:1050F800000801080208030804080508000701075A
:10510800020703070407050700060106020603064F
:105118000406050600050105020503050405050545
:105128000004010402040304040405040003010349
:10513800020303030403050300020102020203023F
:105148000402050200010101020103010401050135
:10515800000001000200030004000500010203042E
:10516800050607080900404D36390908BC078607B7
:0A5178004D07E006F90612072B07A9
:00000001FF
