:100000000C94EE020C940B030C940B030C940B0356
:100010000C940B030C940B030C940B030C940B0328
:100020000C940B030C940B030C941A120C94D61121
:100030000C94FB230C940B030C940B030C940B03F8
:100040000C940B030C940B030C940B030C940B03F8
:100050000C940B030C94EF0D0C940B030C940B03FA
:100060000C940B030C940B030C940B030C940B03D8
:100070000C940B030C940B030C940B030C940B03C8
:100080000C940B030C940B030C940B030C940B03B8
:100090000C940B030C940B030C940B030C940B03A8
:1000A0000C940B030C940B030C940B0335002B00E6
:1000B0002962E000A80000001E00140004001D00DA
:1000C000E200AA001F001A0016001B004C00296362
:1000D00020000800070006000253E300210015007D
:1000E000090019000153A900220017000A000500A9
:1000F0000000065D390000070000000F0000075DEA
:100100004C00280A00002C010000055D23001C00A3
:100110000B00110000004600240018000D00100024
:100120002874BD0025000C000E0036002A002C00AB
:10013000260012000F003700296A296527001300E6
:1001400033003800E400BE0030002F0034003100DE
:10015000085D00003500105010502B00035D0000BA
:100160003A003A0459005E00045D01003B003B0484
:100170005A005F000A002C143C003C045B00600045
:10018000190001003D003D045C0061000100010018
:100190003E003E0422006200000024000100010035
:1001A0000000010000002500010001000000010026
:1001B000000026003F003F042D002E000000270015
:1001C000400040041F1420140100010041004104BC
:1001D00025002E0201001050420042041B14210091
:1001E00021140100430043040614220022140100DC
:1001F00044004500440445042D02000000000000B6
:10020000105000000100000000000000000000008D
:1002100001000100000000000000000001000100DA
:1002200000000000000000000100010000000000CC
:10023000F400F5000100010000000000F6000100DC
:1002400000000100000000000000000000000100AC
:10025000000000000000000000000000000000009E
:100260005000F20000000000000000005100F1000A
:1002700001000000000000005200F00001001050DA
:10028000000000004F00F30001000100000000002A
:100290000000000000000000F900FA004B004E00D2
:1002A000000000000000000000000000000000004E
:1002B00000000000000000007E0F00D4FFFFFFC719
:1002C0000000007800000000000000002A2B280039
:1002D00000000000000000000000000000000029F5
:1002E000000000002C1E3420212224342627252E35
:1002F000362D3738271E1F2021222324252633336D
:10030000362E37381F0405060708090A0B0C0D0E98
:100310000F101112131415161718191A1B1C1D2F64
:100320003130232D350405060708090A0B0C0D0E84
:100330000F101112131415161718191A1B1C1D2F44
:100340003130354C0A00000000000306B2000800FE
:1003500001000000A800080002000200A000140034
:10036000030057494E5553420000000000000000B2
:1003700000008400040007002A00440065007600A5
:1003800069006300650049006E007400650072003A
:1003900066006100630065004700550049004400A5
:1003A0007300000050007B00390044004200370019
:1003B00046003100460044002D003700450037005C
:1003C00041002D0034003000300038002D0039008D
:1003D0003300360042002D00360042004100360056
:1003E0004300310039004100330030003800630021
:1003F0007D00000000001B0301636F6E6669677576
:1004000072652E6572676F646F782D657A2E636FE3
:100410006D0005010902A10185020901A10005097C
:100420001901290515002501950575018102950120
:10043000750381010501093009311581257F950278
:100440007508810609381581257F95017508810693
:10045000050C0A38021581257F950175088106C0B3
:10046000C005010980A10185031A81002A830016B5
:100470000100260300950175108100C0050C0901DB
:10048000A10185041A01002A9C02160100269C0283
:10049000950175108100C005010906A101850505BA
:1004A0000719E029E7150025019508750181020566
:1004B00007190029EF1500250195F0750181020546
:1004C000081901290595057501910295017503919A
:1004D00001C005010906A101050719E029E715007A
:1004E00025019508750181029501750881010507AF
:1004F000190029FF150026FF0095067508810005E3
:100500000819012905950575019102950175039159
:1005100001C009025200030100A0FA090400000111
:10052000030101000921110100012240000705819A
:100530000308000A09040100010300000009211159
:1005400001000122C0000705820320000A090402FD
:100550000002FF00000007058303400005070504B3
:10056000034000051201100200000008EDFE071311
:1005700001000102030104033000000016034500DE
:10058000720067006F0064006F0078002000450073
:100590005A00000008035A00530041000000040301
:1005A0000904050F3900021C100500DF60DDD88941
:1005B00045C74C9CD2659D9E648A9F00000306B28D
:1005C0000045001810050038B60834A909A0478B6B
:1005D000FDA0768815B665000142000011241FBEFB
:1005E000CFEFDAE0DEBFCDBF12E0A0E0B1E0EEEF8A
:1005F000F2E502C005900D92A430B107D9F726E0CC
:10060000A4E0B2E001C01D92A834B207E1F70E9455
:10061000F1200C9452290C940000E8EDF0E0808168
:100620008E7F80831092E2001092DA001092E10037
:10063000A0EEB0E08C9181608C9380818F77808375
:1006400019BCA7EDB0E08C918E7F8C9380818F7E5A
:1006500080831092150608952091E4003091E50002
:1006600095E6A9012091EC00822F817020FF06C041
:100670008091E80080FF06C080E008952091E800A6
:1006800022FD1AC080913A06882389F0853089F0CE
:100690008091EB0085FD0FC02091E4003091E500D2
:1006A00042175307F9F29150E1F684E0089582E091
:1006B000089583E0089581E00895EF92FF920F93EB
:1006C0001F93CF937C018B010E942C03C82F88239A
:1006D00071F08C2FCF911F910F91FF90EF900895A3
:1006E000F70181917F018093F100015011090115FB
:1006F000110579F38091E80085FDF2CF8091E80043
:100700008E778093E8000E942C03882381F3C82F02
:10071000E0CF80913C0687FF13C08091E80082FF04
:1007200006C08091E8008B778093E80004C0809138
:100730003A068111F2CF089580913A068823D9F3C1
:100740008091E80080FFF8CF8091E8008E77ECCFB1
:10075000982F9093E900242F762F50E0891731F0DD
:100760007091EC002091ED005091F00021FD07C048
:100770009F5F973071F78093E90081E00895309191
:10078000EB003E7F3093EB003091ED003D7F3093E6
:10079000ED003091EB0031603093EB007093EC0092
:1007A0002093ED005093F0002091EE0027FDE0CF64
:1007B00080E00895CF92DF92EF92FF920F931F9304
:1007C000CF93DF93C8EDD0E088818F7E8883E7EDFB
:1007D000F0E080818160808384E082BF81E080934B
:1007E000150688818E7F888302EE10E0F801108262
:1007F0001092DA0081EEC82ED12CF6011082888189
:100800008F77888388818068888388818F7D8883BB
:1008100019BC10923A0610923B06109239061092BB
:10082000380690EEE92EF12CF70180818B7F8083D2
:1008300088818160888342E060E080E00E94A803B4
:10084000F60180818E7F8083F801808181608083C2
:10085000808188608083F70180818E7F808388819A
:1008600080618883DF91CF911F910F91FF90EF906E
:10087000DF90CF900895FC0180914206909143064D
:1008800086179707A0F06115710529F48091E8009B
:100890008E778093E80090E06115710551F4911115
:1008A00008C08091E80082FF35C080E00895BC0157
:1008B000F2CF80913A068823C9F18530C9F1809141
:1008C000E80083FD31C08091E80082FDEACF80918D
:1008D000E80080FFE1CF8091F3002091F200382FF3
:1008E0006115710519F02830310558F091E0283074
:1008F000310509F090E08091E8008E778093E80060
:10090000CBCF84918093F1003196615071092F5FB4
:100910003F4FE6CF80913A06882341F0853041F081
:100920008091E80083FFBDCF81E0089582E00895C3
:1009300083E00895FC01809142069091430686175A
:100940009707A0F06115710529F49091E8009E7752
:100950009093E80090E06115710551F4911108C081
:100960008091E80082FF34C080E00895BC01F2CF9E
:1009700080913A068823C1F18530C1F18091E80069
:1009800083FD30C08091E80082FDEACF8091E800CD
:1009900080FFE1CF8091F3002091F200382F6115A4
:1009A000710519F02830310558F091E028303105F3
:1009B00009F090E02091E8002E772093E800CBCF5B
:1009C00081918093F100615071092F5F3F4FE7CF14
:1009D00080913A06882341F0853041F08091E8000B
:1009E00083FFBECF81E0089582E0089583E00895FB
:1009F00080913A06843011F482E0089581E00895F0
:100A000080911706089520913A06243099F423E046
:100A10002093E90070E050E040E00E945D038823ED
:100A200021F010921306109214068091E8008E7740
:100A30008093E80008959091F705803F41F48091FC
:100A4000F80587FD1092F805992371F00895813F0C
:100A500029F48091F8051816ACF3F6CF823F81F4A3
:100A600097FFF2CF1092F7058091F8059091F90564
:100A7000892B9091FA05892B49F71092FB0508956F
:100A8000833F19F4191674F3DFCF893F39F480914D
:100A9000F9051816CCF61092F905D6CF8A3F29F43D
:100AA0008091F90587FFD0CFF6CF8B3F39F4809145
:100AB000FA0587FFC9CF1092FA05C6CF8C3F29F4FB
:100AC0008091FA051816BCF3BFCF843F31F48091B2
:100AD000F6058E7F8093F605B7CF853F21F4809190
:100AE000F6058D7FF7CF863F21F48091F6058B7F49
:100AF000F1CF873F21F48091F605877FEBCF883FC8
:100B000021F48091F6058F7EE5CF8D3F31F4809101
:100B1000C9058E7F8093C90597CF8E3F21F48091C0
:100B2000C9058D7FF7CF8F3F09F08ECF8091C90522
:100B30008B7FF0CF8091C90580FD16C081FD16C066
:100B400082FD16C08091FB058823A1F0883280F4D5
:100B500028E0829FC001112468E270E00E94EF2427
:100B6000862F672B39F0089582E0089584E0089578
:100B700088E0089581E008958091C90580FD16C040
:100B800081FD16C082FD18C08091FB05882391F07D
:100B90008C3390F423E2829FC00111246CE370E057
:100BA0000E94EF24862F672B49F0089588E008956E
:100BB00081E1089585E0089583E2089581E0089534
:100BC000803F31F40E94BC0581958093F80508951B
:100BD000813F19F40E94BC05F8CF823F31F40E9496
:100BE000BC0581958093F7050895833F19F40E9411
:100BF000BC05F8CF893F29F40E949A058093F90536
:100C000008958A3F21F40E949A058195F7CF8B3F82
:100C100031F40E949A0581958093FA0508958C3FDE
:100C200019F40E949A05F8CF843F31F48091F605BB
:100C300081608093F6050895853F21F48091F60543
:100C40008260F7CF863F21F48091F6058460F1CF72
:100C5000873F21F48091F6058860EBCF883F21F42F
:100C60008091F6058061E5CF8D3F31F48091C90513
:100C700081608093C90508958E3F21F48091C90554
:100C80008260F7CF8F3FB9F78091C9058460F1CFBB
:100C9000CF92DF92EF92FF920F931F932FB7F894AA
:100CA0004091C5055091C6056091C7057091C80572
:100CB0002FBF6A017B01EE24FF248C0130E020E08D
:100CC000C016D106E206F30650F0481B590BCA01C4
:100CD0001F910F91FF90EF90DF90CF9008954150BA
:100CE0005109F3CFCF92DF92EF92FF926C01EE2485
:100CF000FF2420E0C114D104E104F10419F0C7017C
:100D0000B60120E1C72ED82EE92EFF24C114D1044C
:100D1000E104F10419F0285FC701B6016B017C0101
:100D200054E0F694E794D794C7945A95D1F7C11438
:100D3000D104E104F10419F02C5FC701B6016B0185
:100D40007C0142E0F694E794D794C7944A95D1F792
:100D5000C114D104E104F10419F02E5FC701B601FA
:100D60009695879577956795672B682B692B09F082
:100D70002F5F822FFF90EF90DF90CF9008958091AA
:100D8000C00581111092C00508958091BF05909112
:100D9000BE05892B9091BD05892B8093040290910B
:100DA000C0059923A1F0892B809304028091190139
:100DB000882341F18091E20587FF24C08EE1E6E0BF
:100DC000F2E090E0815000F591110E94BF06E091A1
:100DD000E405F091E5053097E1F080911901882351
:100DE00059F08091E20587FF07C08091040280934B
:100DF000050285E0809304020280F381E02D84E007
:100E000092E0099486E0DBCF21912223D9F29F5F03
:100E1000D9CF0895909119019923D1F09091E205CD
:100E200097FF16C0E82FE695E695E695EE31E0F4DB
:100E3000F0E0EC5FFD4F282F277081E090E001C0CB
:100E4000880F2A95EAF780959281892382830895F5
:100E5000E6E0F2E09191891303C0DF0111971C9243
:100E600092E0EC30F907B1F70895909119019923B8
:100E7000C1F09091E20597FF14C0E82FE695E69542
:100E8000E695EE31F8F4F0E0EC5FFD4F877021E07D
:100E900030E001C0220F8A95EAF78281822B82839B
:100EA0000895A6E0B2E0EFEF90E02D91821751F0A7
:100EB000EF3F19F4211101C0E92F9F5F9630A9F788
:100EC000EF3F09F408950E2E000CFF0BEC5FFD4F71
:100ED000E6CFE92FEE0FE90FEE0F8E0F982F9770E8
:100EE00086958695869525E0829FF0011124EB5723
:100EF000FA4F50E040E080E0219130E0092E02C03E
:100F0000369527950A94E2F721703327042E01C005
:100F1000220F0A94EAF7822B4F5F5F4F453051054D
:100F200059F70895E92FEE0FE90FEE0F8E0F982F66
:100F3000977041E001C0440F9A95EAF7869586952F
:100F4000869595E0899FF0011124EB57FA4F30E028
:100F500020E070E05191DF011197CB01022E02C019
:100F6000969587950A94E2F7817081958527842369
:100F700085278C932F5F3F4F2530310559F7089512
:100F80008091840590915305981301C008958F5F57
:100F90008770FACF882341F080959091BE05892310
:100FA0008093BE050C94C5060895882339F090916E
:100FB000BE05982B9093BE050C94C5060895882312
:100FC00041F080959091BF0589238093BF050C94D3
:100FD000C5060895882339F09091BF05982B90930A
:100FE000BF050C94C506089520912F023091300260
:100FF0002817390771F09093300280932F02E09107
:10100000E405F091E505309721F00084F185E02DAD
:101010000994089520912D0230912E022817390746
:1010200071F090932E0280932D02E091E405F091EF
:10103000E505309721F00680F781E02D09940895A9
:10104000E091E405F091E505309721F00190F08101
:10105000E02D099480E008959091E20592FF06C08A
:10106000282F28712830F9F4877F846093FF06C009
:10107000282F28712831F1F4877E84612091E305BF
:1010800020FF06C0382F38713830D9F4877F81604F
:1010900021FF06C0282F28712831D1F4877E816175
:1010A00094FD877E0895282F24712430F9F68B7FD4
:1010B0008860DCCF282F2471243101F78B7E886172
:1010C000DDCF382F3171313019F78E7F8860E0CF56
:1010D000282F2171213121F78E7E8861E1CFCF93B6
:1010E000DF93972F70E026E0929F600D711D112411
:1010F000FB0134E5839FE00DF11D1124EE0FFF1F6E
:10110000E455FF4FC591D491CE01C238D105B9F154
:10111000E8F5C133D10509F499C050F5C932D105BC
:1011200009F48DC0CA32D10509F497C0C11542E552
:10113000D40708F0C4C0C11521E5D20708F038C1B2
:10114000C83ED10508F09DC0C03ED10568F5C83A3B
:10115000D10508F089C0C53AD10508F005C1C130F4
:10116000D10511F1209709F443C02497E8F440C059
:10117000C533D10509F45CC0C933D105B9F6209156
:10118000E205237089F080EE90E00EC0C33ED105E9
:1011900091F168F4C03ED105F9F0C23ED10531F6B7
:1011A0002091E20522FD20C0DF91CF910895C63E37
:1011B000D10561F1C73ED10581F1C43ED10509F0E9
:1011C000B5CF2091E30521FFEFCF8091E20584FDAB
:1011D0000FC087EE90E0E8CF2091E20520FD19C115
:1011E0003091E30530FFE0CF83EE90E024FFDCCFC9
:1011F00090E080E0D9CF2091E20522FD0DC1309131
:10120000E30530FDC0CF24FFCFCFF2CF2091E20520
:1012100023FFCACF24FDECCFDCCF2091E20523FDD4
:10122000FEC03091E30531FFEECF84EE90E0BCCFFD
:101230002091E20525FFB8CF89E290E0B5CF20915B
:10124000E20525FFB1CF85E390E0AECF2091E20526
:1012500026FFAACF8AE290E0A7CF2091E20526FFE1
:10126000A3CF81E390E0A0CFCF3BD10508F6C85AC9
:10127000D0E0CC0FDD1FCA52DE4F88819981946483
:1012800093CFC11530E2D30760F4C11541E0D40714
:1012900008F08ACFCE019065C03FD10508F084CF19
:1012A000A7CFC11580E4D80708F4A2CFC11590E5F7
:1012B000D90708F061C0CE019F70906A75CFC11543
:1012C00026E5D20718F5C11535E5D30708F086C025
:1012D000C11544E5D40708F07CC09C2F96959695DF
:1012E000AE0143705527C115D34508F466C021E00F
:1012F00030E002C0220F331F4A95E2F740E2949F8C
:10130000C0011124822B932B9A684ECFC1159AE508
:10131000D90778F4C11529E5D20708F069C0C115CD
:1013200038E5D30708F464CF9C2F8827806F906A34
:101330003BCFC1154BE5D40708F45ACFC1158CE556
:10134000D80708F462C0CE0190568115904208F08B
:101350004FCF8D2F8F710E942C0890E0982F8827F7
:1013600088279F718C2B42C0C55AD0E0CD52DE4FEA
:10137000888190E0906418CF9E01E4E0369527952F
:10138000EA95E1F723708C2F86958695837030E27D
:10139000839FC0011124922BC37021E030E002C072
:1013A000220F331FCA95E2F7822B932B9C68FCCE49
:1013B0009C2F8827816F906AF7CE21E030E002C031
:1013C000220F331F4A95E2F740E2949FC001112497
:1013D000EBCF9C2F8827846F906AE6CE8C2F0E94DB
:1013E0002C0890E0982F882788279F719062DCCE88
:1013F0008C2F8F700E942C0834E0D695C7953A95B3
:10140000E1F7CF709C2F9069CFCECE0199279066DF
:10141000CBCE89E390E0C8CE82EE90E0C5CE86EEDA
:1014200090E0C2CEBF92CF92DF92EF92FF920F93E5
:101430001F93CF93DF938C01C0900E06D0900F06C0
:10144000E0901006F09011068091C1059091C205C0
:10145000A091C305B091C405C82AD92AEA2AFB2A5B
:10146000CFE1D0E0BC2ED701C6010C2E04C0B6954A
:10147000A795979587950A94D2F780FD0EC021977E
:1014800088F7B12C8B2DDF91CF911F910F91FF9099
:10149000EF90DF90CF90BF900895B8018C2F0E94FD
:1014A0006F08019761F3EECFCF93DF93EC010E94B9
:1014B000120ABE01DF91CF910C946F080E94540A6A
:1014C000292F2F7092959F7092509E3078F4E92FBB
:1014D000F0E0EC5AF64D0C940325803F19F020F40F
:1014E000883E20F481E00895843FE1F380E0089590
:1014F000883EC0F3813FD1F7F5CF822F8695869540
:1015000086950895CF93DF939C013A9521153F412D
:1015100068F5EC01CC27D170DC01AA27B270AC01D0
:10152000442754709C012227387094FF11C080E139
:10153000CD2B09F480E0AB2B09F08062452B09F03C
:101540008064232B09F08068FB01DF91CF9109941F
:1015500081E0CD2B09F480E0AB2B09F08260452BB4
:1015600009F08460232B81F38860EECFDF91CF9167
:10157000089527982F98089526982E9808952598CD
:101580002D98089556985E980895279A2F9A089551
:10159000269A2E9A0895259A2D9A0895CF92DF9231
:1015A000EF92FF92CF936B017C010E947206C82FCD
:1015B0000E94C20A0E94BF0A0E94BC0A0E94B90A85
:1015C000C150C73040F4EC2FF0E0EE59F64D0C94CA
:1015D00003250E94CB0AC701B601CF91FF90EF907F
:1015E000DF90CF9008950E94CB0A0E94C80AF3CFE3
:1015F0000E94CB0A0E94C50AEECF0E94CB0A0E942D
:10160000C80AF8CF84B1807F84B985B1807F85B95D
:101610008AB1837F8AB98BB1837F8BB93E98469814
:10162000089580B38C7080BB81B3836F81BB0895B4
:10163000CF9384E090E00E944025C82F81E290E0A3
:101640000E944025982F8C2FCF910895CF93DF9340
:1016500000D00F92CDB7DEB790913A06943019F5CD
:1016600089837B836A8382E08093E9008FEF909186
:10167000E800815095FD06C095ED9A95F1F70000C0
:101680008111F5CF8091E80085FF0DC050E040E06A
:1016900063E070E0CE0101960E945D038091E80056
:1016A0008E778093E8000F900F900F90DF91CF918D
:1016B0000895CF93DF93EC010E94F804823011F07B
:1016C000843031F4BE0184E0DF91CF910C94260B7D
:1016D000DF91CF910895BC016058710983E00C94AB
:1016E000260BCF93DF93EC010E94F804823011F0B7
:1016F0008430F9F482E08093E9008FEF9091E80064
:10170000815095FD06C095ED9A95F1F70000811185
:10171000F5CF8091E80085FF0CC050E040E066E026
:1017200070E0CE010E945D038091E8008E77809387
:10173000E800DF91CF910895CF93DF93EC010E94F1
:10174000F804823011F08430B9F5809119018823B2
:10175000B1F18091E20587FF32C060E282E08093C0
:10176000E9008FEF9091E800815095FD06C095ED5E
:101770009A95F1F700008111F5CF8091E80085FF7F
:101780001BC08091190170E050E040E0811104C05D
:1017900050E040E068E070E0CE010E945D0380917F
:1017A000E8008E778093E80080E2FE01A8E1B6E0D1
:1017B00001900D928A95E1F7DF91CF91089568E04D
:1017C00081E0CDCFEF92FF920F931F93CF93DF93E2
:1017D0000E94C20A0E94BF0A0E94BC0A0E94B90A63
:1017E00088E8E82EF12C8FEF90E0F7019183808359
:1017F0000AE810E0F80191838083CCE8D0E0998377
:1018000088830E94CB0AFFEF20E782E0F15020405E
:101810008040E1F700C000000E94C80A9FEFE0E7A7
:10182000F2E09150E040F040E1F700C000000E947B
:10183000C50A2FEF80E792E0215080409040E1F709
:1018400000C000000E94BF0AEFEFF0E722E0E15085
:10185000F0402040E1F700C000000E94BC0A8FEF7A
:1018600090E7E2E081509040E040E1F700C00000E6
:101870000E94B90A8091D0058770FFEF8F9FC00149
:10188000112495958795959587959927F7019183CB
:101890008083F80191838083998388830E94C20AA0
:1018A0000E94BF0A0E94BC0ADF91CF911F910F9145
:1018B000FF90EF900C94B90A6091CC058CE090E019
:1018C0000C9454256FEE7EEF90E080E00E9472252C
:1018D00060E082E090E00E94542560E083E090E0C8
:1018E0000E9454251092C1051092C2051092C305A2
:1018F0001092C40560E084E090E00E94542560E00E
:1019000081E290E00E94542560E085E090E00E9432
:10191000542560E086E090E00E9454256FEF87E058
:1019200090E00E94542540E050E0BA0188E090E049
:101930000E94662560E08DE090E00E94542540E022
:1019400050E0BA0188E190E00E94662560E087E1FE
:1019500090E00E94542540E050E0BA018CE190E014
:101960000E94662560E080E290E00E94542510927B
:10197000D0051092D1051092D2051092D30584E0C3
:1019800080618093D0054091D0055091D105609140
:10199000D2057091D3058FE090E00E94662540E06B
:1019A00050E0BA0183E190E00C946625CF93C82FF4
:1019B000873070F580910D0190910E01892B89F58A
:1019C00064E670E080E40E94282490930E018093E6
:1019D0000D01892BD1F464E670E082E10E94842439
:1019E00090930E0180930D01892B79F481E090E0B2
:1019F00001C0880FCA95EAF764E670E080950E94FE
:101A0000842490930E0180930D01CF910C94D724E0
:101A10008A30B9F040F4883071F0893079F0209A3A
:101A20002898CF9108958C3091F070F08D30B9F7EF
:101A30003E9A4698F6CF219A2998F3CF229A2A986F
:101A4000F0CF239A2B98EDCF529A5A98EACF539A17
:101A50005B98E7CF80E290E090930E0180930D01B8
:101A600080912A0281110EC00E94222481E080937D
:101A70002A022FEF83ED90E3215080409040E1F760
:101A800000C0000064E670E080E40E942824909387
:101A90000E0180930D01892B09F04EC064E670E0C1
:101AA00080E00E94842490930E0180930D01892B85
:101AB00009F042C064E670E080E00E9484249093C4
:101AC0000E0180930D01892BB9F564E670E08FE378
:101AD0000E94842490930E0180930D01892B61F55F
:101AE0000E94D72464E670E080E40E94282490934A
:101AF0000E0180930D01892BF9F464E670E08CE00F
:101B00000E94842490930E0180930D01892BA1F4EF
:101B100064E670E080E00E94842490930E0180933C
:101B20000D01892B49F464E670E08FE30E94842460
:101B300090930E0180930D010E94D72480910D0196
:101B40000895CF93873008F040C080910D019091A7
:101B50000E01C0E0892B71F464E670E080E40E941D
:101B6000282490930E0180930D01892B31F0C0E061
:101B70000E94D7248C2FCF91089564E670E083E112
:101B80000E94842490930E0180930D01892B79F794
:101B900064E670E081E40E94282490930E01809313
:101BA0000D01892B21F784E690E00E94B32497FF72
:101BB00005C090930E0180930D01D9CFC82FC09519
:101BC00010920E0110920D01D3CFCFB18FB1869537
:101BD00086958C73C3708C2BC82FC095CBCF78940F
:101BE0001F921FB61F9211248F939F93AF93BF93A1
:101BF0008091C5059091C605A091C705B091C80513
:101C00000196A11DB11D8093C5059093C605A093B3
:101C1000C705B093C805BF91AF919F918F911F9059
:101C20001FBE1F9018952FB7F8948091C50590910D
:101C3000C605A091C705B091C8052FBF0895E091D2
:101C4000E405F091E505309749F082E08093F505D1
:101C50000480F581E02D85EF95E009950E94130E33
:101C60009093FD058093FC0508951092BE05109297
:101C7000BD050E94C50686E0E5EFF5E0DF011D9297
:101C80008A95E9F71092FB051092C9050E941F0E74
:101C900090E080E00E940A0890E080E00C94F40755
:101CA000CF92DF92EF92FF92CF93DF9300D000D0DC
:101CB000CDB7DEB70E94CE0A6B017C01809112067F
:101CC000882321F080911306811115C0C0920E0661
:101CD000D0920F06E0921006F09211060E94350E87
:101CE0000F900F900F900F90DF91CF91FF90EF909A
:101CF000DF90CF900895198282E08A83C701B601F0
:101D00000E9472068B838EEF8C8364E0CE01019675
:101D10000E940305DBCF0F931F9341E050E060E08A
:101D200070E004C0440F551F661F771F8A95D2F7D5
:101D3000CB01BA01609570958095909500910E0643
:101D400010910F0620911006309111066023712327
:101D5000822393231F910F910C94500E9091BC05F8
:101D6000809589238093BC05282F277071F4282F34
:101D7000082E000C330B9217130639F085958595C4
:101D800085950E948B0E1092BC0508950F931F93AA
:101D900041E050E060E070E004C0440F551F661F52
:101DA000771F8A95D2F780910E0690910F06A09129
:101DB0001006B09111068A019B01082B192B2A2BC2
:101DC0003B2BC901B8011F910F910C94500E60E09C
:101DD00070E0CB010C94500E6093C1057093C20566
:101DE0008093C3059093C4050C94350E1092BF05E3
:101DF00080911901E6E0F2E0882359F08091E20534
:101E000087FF07C08EE1DF011D928A95E9F70C94E8
:101E1000350E86E0F8CF1F93CF93DF93CDB7DEB7B3
:101E2000AA970FB6F894DEBF0FBECDBF8CE396E045
:101E30002091F100FC012193CF01F6E084349F074B
:101E4000B9F780913D06893009F444C018F5823015
:101E500009F4B7C0833009F46CC0813031F580914A
:101E60003C06813A11F58091E800877F8093E80075
:101E70008091400690914106892B41F560E288E10E
:101E800096E070E00E949A048091E8008B7780933E
:101E9000E8000BC08B3009F469C008F481C08234BB
:101EA00009F4A0C0853409F4BAC08091E80083FF2A
:101EB00065C280913C0690913D069A3008F05EC262
:101EC000E92FF0E0E759F64D0C94032560E090E02F
:101ED00080E0D7CF80913C06813239F7809140066F
:101EE00090914106029708F78091E800877F8093E0
:101EF000E8008091E80082FF17C09091F300809184
:101F0000F200029729F48091F1008B7F813021F457
:101F10008091F100809317068091E8008B77809381
:101F2000E8000E948903C1CF80913A068111E1CF78
:101F3000BCCF80913C06813A09F0B7CF8091400632
:101F400090914106892B09F0B0CF8091E800877FFE
:101F50008093E8008091E80080FFFCCF8091190118
:101F60008093F1008091E8008E77D9CF80913C0674
:101F7000813209F09ACF8091400690914106892BD9
:101F800009F093CF8091E800877F8093E8000E945A
:101F9000890380913E06809319010E94F60E85CF39
:101FA00080913C06813209F080CF8091E800877FE4
:101FB0008093E8000E94890380913F068093160673
:101FC00074CF80913C06813A09F06FCF8091E80090
:101FD000877F8093E8008091E80080FFFCCF8091AC
:101FE0001606BECF80913C06803C09F05ECF809102
:101FF000400690914106029739F580913E069091F6
:102000003F06892B09F58091E800877F8093E800DF
:102010006BE170E086EF93E00E943B0482CF8091F9
:102020003C06803C09F041CF8091400690914106EA
:10203000079751F48091E800877F8093E80062EB76
:1020400070E084E493E0E8CF8091EB0080628093BD
:10205000EB002BCF803899F0823809F08FC1809146
:1020600040068F70873008F089C18093E900809125
:10207000EB0085FB882780F91092E90006C080916B
:10208000380690913906911182609091E800977F0F
:102090009093E8008093F1001092F1008091E800A5
:1020A0008E7768C1882309F456C1823009F066C171
:1020B00080913E06811159C1809140068F702FEFAB
:1020C000280F263008F05AC18093E9002091EB00D8
:1020D00020FF4BC1933031F48091EB0080628093FC
:1020E000EB0043C19091EB0090619093EB0021E0F5
:1020F00030E001C0220F8A95EAF72093EA0010929F
:10210000EA008091EB008860EACF811137C110911D
:102110003E061F778091E3008078812B8093E30057
:102120008091E800877F8093E8000E948903809176
:10213000E80080FFFCCF8091E30080688093E3009B
:1021400082E0111183E080933A0618C180588230F2
:1021500008F014C180913E0690913F068C3D23E02B
:102160009207A1F583E08A838AE289834FB7F894C6
:10217000DE01139620E03EE051E2E32FF0E05093C1
:102180005700E49120FF03C0E295EF703F5FEF70CE
:102190008E2F90E0EA30C0F0C7968D939D932F5F0D
:1021A000243159F74FBF8091E800877F8093E80082
:1021B0006AE270E0CE0101960E949A048091E800E4
:1021C0008B778093E800DAC0C096E7CF4091400655
:1021D00050914106292F33272330310569F1A0F4AE
:1021E0002130310509F46CC062E570E082E195E0D0
:1021F0002230310509F0C2C02091E800277F2093EA
:10220000E8000E943B04DACF2132310509F440C0D6
:102210002232310509F448C02F30310509F0AEC033
:10222000E4EAF5E0E4916E2F70E082EA95E0611552
:10223000710509F4A3C0E0CF992781309105C1F061
:10224000009771F082309105D9F0039709F096C09C
:10225000E6E7F5E0E4916E2F70E086E795E0E7CFE2
:10226000EEE9F5E0E4916E2F70E08EE995E0DFCFC6
:10227000E4E9F5E0E4916E2F70E084E995E0D7CFD2
:10228000ECE7F5E0E4916E2F70E08CE795E0CFCFBE
:1022900041155105D1F04130510509F06FC069E099
:1022A00070E08DE395E0A8CF4115510599F04130DC
:1022B000510509F063C060EC70E082E194E09CCFCE
:1022C00062E170E084E695E097CF69E070E084E237
:1022D00095E092CF60E470E082ED94E08DCF80389D
:1022E00009F04CC08091E800877F8093E8008091DE
:1022F0003B068093F100D2CE811140C010913E0682
:102300001230E0F58091E800877F8093E800109319
:102310003B060E948903112311F084E005C08091DF
:10232000E30087FDFACF81E080933A0642E061EC5A
:1023300081E00E94A80342E261EC82E00E94A803CF
:1023400042E361EC83E00E94A80342E360EC84E096
:102350000E94A80313C080913E06813079F481E089
:10236000933009F080E0809339061092E900809163
:10237000E800877F8093E8000E9489038091E8004D
:1023800083FF0AC08091E800877F8093E8008091F6
:10239000EB0080628093EB00AA960FB6F894DEBF44
:1023A0000FBECDBFDF91CF911F9108951F920F9265
:1023B0000FB60F9211242F933F934F935F936F9318
:1023C0007F938F939F93AF93BF93CF93DF93EF93BD
:1023D000FF93D091E900DF708091EC00C82FC170AD
:1023E00080FDC0E81092E9008091F000877F809323
:1023F000F00078940E940B0F1092E9008091F00099
:1024000088608093F000CD2BCF70C093E900FF91DE
:10241000EF91DF91CF91BF91AF919F918F917F917C
:102420006F915F914F913F912F910F900FBE0F9041
:102430001F9018951F920F920FB60F9211242F9391
:102440003F934F935F936F937F938F939F93AF933C
:10245000BF93EF93FF938091E10082FF09C08091C9
:10246000E20082FF05C08091E1008B7F8093E10054
:102470008091DA0080FF24C08091D80080FF20C0C6
:102480008091DA008E7F8093DA008091D90080FFFE
:102490009FC080E189BD82E189BD09B400FEFDCF06
:1024A00081E080933A0680911506811109C00E944F
:1024B0000D030E94DA038091E20084608093E200C1
:1024C0008091E10080FF17C08091E20080FF13C07F
:1024D0008091E2008E7F8093E2008091E200806133
:1024E0008093E2008091D80080628093D80019BC6C
:1024F00085E080933A068091E10084FF2DC08091B1
:10250000E20084FF29C080E189BD82E189BD89B5EF
:10251000982F917080FFFBCF8091D8008F7D8093A2
:10252000D8008091E1008F7E8093E1008091E200ED
:102530008F7E8093E2008091E20081608093E200D0
:1025400080913B06882309F449C084E080933A06D1
:102550000E94F60E0E9420088091E10083FF27C0B0
:102560008091E20083FF23C08091E100877F809308
:10257000E10082E080933A0610923B068091E100F0
:102580008E7F8093E1008091E2008E7F8093E20055
:102590008091E20080618093E20042E060E080E0B0
:1025A0000E94A8038091F00088608093F000FF9162
:1025B000EF91BF91AF919F918F917F916F915F91BB
:1025C0004F913F912F910F900FBE0F901F90189534
:1025D00019BC10923A061092150672CF8091E30052
:1025E00087FD93E090933A06B3CF882309F459C04E
:1025F000823871F40E94200881FF53C089E30E9451
:1026000035070E94C50689E30E940A070C94C50697
:10261000833859F40E94200880FF43C083E50E945C
:1026200035070E94C50683E5EFCF843859F40E9430
:10263000200882FF36C087E40E9435070E94C50645
:1026400087E4E2CF9CEF980F913AF0F290E2980F76
:10265000983088F4877021E030E0A90102C0440F6F
:10266000551F8A95E2F7CA0180959091BF0589238D
:102670008093BF05CBCF9BE5980F933020F490E07B
:1026800080E00C940A0898E5980F973120F490E0C8
:1026900080E00C94F407803F20F00E941B050C940E
:1026A0001F0E0895CF93DF93EC010E94F5126AECA0
:1026B00077E0CE01DF91CF910C94820A882309F450
:1026C0007BC08238B9F40E94200881FD75C089E37F
:1026D0000E9435070E94C5062FEF81EE94E021503D
:1026E00080409040E1F700C0000089E30E940A07A3
:1026F0000C94C5068338A1F40E94200880FD5CC0BC
:1027000083E50E9435070E94C5062FEF81EE94E015
:10271000215080409040E1F700C0000083E5E6CF03
:102720008438A1F40E94200882FD46C087E40E94FC
:1027300035070E94C5062FEF81EE94E021508040BE
:102740009040E1F700C0000087E4D0CF9CEF980FE5
:10275000913A18F40E943507CBCF90E2980F983049
:1027600068F4877021E030E001C0220F8A95EAF713
:102770008091BF05822B8093BF05BACFEBE5E80FB0
:10278000E33038F4F0E0ED52FE4F808190E00C949D
:102790000A08E8E5E80FE73148F4F0E0EE0FFF1F24
:1027A000EA52FE4F808191810C94F407803F20F023
:1027B0000E94E0050C941F0E0895CF93C82F0E942D
:1027C0005E13C93349F42FEF87EE93E02150804028
:1027D0009040E1F700C000008C2FCF910C94F512CF
:1027E000CF93C82F65ED77E00E94820A8C2FCF919E
:1027F0000C945E13CF93DF93C0914305D0914405B1
:102800002097E1F080914505909146050E94480689
:1028100020910B0130910C012817390790F4D260F8
:10282000CE010E94F013CE010E9452131092460571
:10283000109245051092440510924305DF91CF9107
:1028400008958C2F0E94DD13F1CF0F931F93CF9328
:10285000DF93C62FD42F022FFC0182818823A1F0A1
:10286000609347050E94130E90932C0280932B02D5
:10287000C77081E001C0880FCA95EAF7DF91CF9158
:102880001F910F910C94EA0710914705161335C05C
:1028900080912B0290912C020E944806883C910561
:1028A00060F5C0E2CD0F1D17B9F080E2810F8830CE
:1028B00040F4177081E001C0880F1A95EAF70E9472
:1028C000DF07C83048F481E09D2F977001C0880F62
:1028D0009A95EAF70E94EA07802F0E94DD13C8301C
:1028E00098F4D77081E001C0880FDA95EAF7DF919C
:1028F000CF911F910F910C94DF07C77081E001C049
:10290000880FCA95EAF7F3CFDF91CF911F910F910E
:1029100008954F925F926F927F928F929F92AF92A3
:10292000BF92CF92DF92EF92FF920F931F93CF93BC
:10293000DF93CDB7DEB728970FB6F894DEBF0FBE92
:10294000CDBF7C01FC0183819481892B39F01081FA
:10295000B180812F8B218F3F09F0D8C728960FB601
:10296000F894DEBF0FBECDBFDF91CF911F910F91C5
:10297000FF90EF90DF90CF90BF90AF909F908F909F
:102980007F906F905F904F9008950E94120A082FD9
:10299000682F89819A810E949207E12FF0E026E05A
:1029A000B29EE00DF11D112434E5039FE00DF11DF1
:1029B0001124EE0FFF1FE455FF4F059114918091F4
:1029C0004105F7019281811155C191110CC004306C
:1029D000FDE51F0709F41CC108F0E8C003303DE520
:1029E000130709F407C180911206882321F0809112
:1029F0001306811178C70930FDE51F07F1F5F701CE
:102A00008281882309F44FC08091D00591E0980F0E
:102A10009770887F953008F4892B8093D00580913A
:102A2000D0058770FFEF8F9FC00111249595879582
:102A30009595879599279093890080938800909326
:102A40008B0080938A0090938D0080938C0040913E
:102A5000D0055091D1056091D2057091D3058FE0DA
:102A600090E00E94662560910E0670910F0680919D
:102A70001006909111060E94CE0AF70182818823E8
:102A800091F0033EFCE51F0709F487C108F075C10A
:102A9000013E3CE5130709F47BC181E0023E6CE591
:102AA000160709F47BC117FF52C0F7018281882302
:102AB00009F4A2C18091BF05809342051092BF0521
:102AC0008091CC05813009F472C1882309F46BC16F
:102AD000823009F475C1843009F479C18FE39CE92F
:102AE0000197F1F700C000004801E89497F85CE016
:102AF000A52EB12C94010A2C02C0369527950A9474
:102B0000E2F72F7087E290E031F0822F90E02A30D8
:102B100008F062C14D960E94DD1394E0A91AB10835
:102B2000ECEFAE16EFEFBE0629F78091CC058130B1
:102B300009F458C1882309F451C1823009F44EC107
:102B4000843009F453C1809142058093BF05F70199
:102B50008281882309F450C10436110571F008F010
:102B600069C10B32110549F0C8010C32110508F09A
:102B70003FC10497849708F03FC10E94FA138091E7
:102B80000A01882309F46FC18091BF0581116BC1CF
:102B90000E94130E909346058093450510934405BB
:102BA0000093430582E00E94AE0ED8CE06306DE55C
:102BB0001607D1F107307DE5170709F014CFA09073
:102BC0000601B0900701C0900E06D0900F06E0906D
:102BD0001006F09011060E94F60E0E94E70E09E31F
:102BE00015E0A016B106A9F1C8010E94891406508B
:102BF0001109F7CF0E94F60E0E94E70E8FE392E0D4
:102C00009093400580933F0581E080934105A6CED7
:102C10000E94F60E0E94E70E89E395E0909340052E
:102C200080933F0582E0F1CFA0900801B0900901A8
:102C3000C0900E06D0900F06E0901006F09011069E
:102C40000E94F60E0E94E70E0FE312E0A016B106F6
:102C500059F40E94F60EC0920E06D0920F06E09232
:102C60001006F09211067ACEC8010E9489140A5FFC
:102C70001F4FECCF0530EDE51E0791F5992309F4C0
:102C80006DCE813029F08230B9F01092410566CEC8
:102C900080913F0590914005F2E08F339F0729F026
:102CA000FC0136972281211105C090930901809380
:102CB0000801EBCFCF01F0CF80913F059091400507
:102CC00025E08933920729F0FC01369622812111F3
:102CD00005C09093070180930601D7CFCF01F0CFB5
:102CE000813021F1823009F07ECE209108013091AF
:102CF0000901A0913F05B0914005911105C075E013
:102D0000A933B70709F46FCECD0106962817390706
:102D100009F469CE86E0F70101900D928A95E1F7FA
:102D200080913F0590914005069720C020910601B3
:102D300030910701A0913F05B0914005911105C068
:102D400062E0AF33B60709F44ECECD0106972817DF
:102D5000390709F448CE86E0F70101900D928A9573
:102D6000E1F780913F0590914005069690934005CC
:102D700080933F0538CE81E1BCC5043E7CE5170752
:102D800081F0053E8CE5180709F08DCE84E006C081
:102D90001092CC050E945C0C86CE82E08093CC051C
:102DA000F9CF83E0FBCF82EE0E945E1397CE88E1DD
:102DB00093E00E94F01388E193E00E9452138ECEBC
:102DC00082EE0E945E1387E50E94DD1387CE86EEB9
:102DD0000E94DD1388E1F8CF06979DCE82EE0E9417
:102DE000F512B1CE8CE20E94DD13ADCE88E2FBCFAE
:102DF0008D970C9708F4C1CE0E94FA13033F3CE56F
:102E0000130709F459C108F045C1083D7CE51707CF
:102E100009F44EC1093D8CE5180709F459C1073D75
:102E20009CE5190701F526E241EE61EEC7010E941B
:102E3000251494CD0931FCE51F0709F479C008F089
:102E400060C007313CE5130709F46CC080910B01A9
:102E500090910C01059708316CE5160769F690937F
:102E60000C0180930B01F7018281882309F462C56C
:102E7000109247050230FCE51F0708F4FFC1063138
:102E80002CE5120738F098012A5F3C4527303105C0
:102E900008F0F4C10E94180B9093E3058093E205BB
:102EA0000F303CE5130709F4CAC108F04BC10830E4
:102EB0007CE5170709F4ADC108F01EC104309CE59C
:102EC000190709F49AC108F006C10230FCE51F0792
:102ED00009F48FC18091E205826003301C4509F43A
:102EE0001DC16091E2051091E30584E090E00E942D
:102EF0005425612F81E290E00E9454250E94F60E35
:102F00002DCD0B317CE5170709F4C0C008F4BAC019
:102F10000C319CE5190709F06FCF10920A010E944D
:102F2000FA13A1CF80910B0190910C01059697CFD8
:102F300080910C018F9380910B018F938AE191E036
:102F40009F938F931F9288E08F93DF92CF920E947E
:102F5000B3260FB6F894DEBF0FBECDBF4AE0642E95
:102F6000F6012081222309F47ECF213009F04BC0E5
:102F70008181B280813051F4F2E0CF0ED11C8B2DD3
:102F80000E945E138B2D0E94F51208C0823051F40E
:102F900022E0C20ED11C8B2D0E945E132FEFC21AAD
:102FA000D20ADECF833021F432E0C30ED11CEACF47
:102FB000843021F06FEFC61AD60AF0CF72E0C70E48
:102FC000D11C30E020E0A6014F5F5F4F6B2D6053B6
:102FD000770BCB016A30710550F021503109F0F2C6
:102FE0008FE99FE00197F1F700C00000F6CF629EE5
:102FF000B001639E700D11249C01260F371FF6014E
:10300000B1806A01E0CFE22FF0E0EC53FD4F749005
:10301000822F86958695869590E0FC01EC54FD4FB5
:1030200084902770912C022E02C0959487940A9464
:10303000E2F7E1E08E229924FC01EC55FD4FA490CB
:10304000B12C02C0B594A7942A95E2F7F1E0AF2223
:10305000BB248114910419F081EE0E945E13A11427
:10306000B10419F086EE0E945E13872D0E94DD13D5
:10307000AB2819F086EE0E94F512892809F48ECF4C
:1030800081EE81CF80910A01811147CF81E0809349
:103090000A01E9CE053FECE51E07B1F088F0063FD6
:1030A0002CE5120709F0DFCE27E245EE66EEBECE34
:1030B00027E245EE65EEBACE26E241EE60EEB6CEF0
:1030C00027E245EE64EEB2CE26E241EE62EEAECEEF
:1030D00028E241E0EFCF8091E205806106303CE5D7
:1030E0001307E1F08091E205886007301C45B0F0DD
:1030F0008091E205806212C00B307CE5170709F46D
:1031000096C078F409309CE5190709F486C08091CF
:10311000E2058C600A301C4509F0E3CE8093E2059D
:10312000E0CE8091E2058B7F0D30FCE51F07B1F307
:103130008091E2058D7F0E301C4580F38091E20581
:10314000877FECCF0A3F3CE5130709F45AC048F5E6
:1031500002317CE5170709F47AC060F400319CE580
:10316000190709F470C08091E2058F7B01311C457D
:10317000A9F2B7CE0431FCE51F0709F476C008F4C4
:103180006CC005311C4509F0ACCE8091E20582FB94
:10319000992790F921E0922790FB82F990FB83F91F
:1031A000BDCF0D3F6CE5160709F445C070F40B3F29
:1031B0008CE5180751F18091E3058E7F0C3F1C458B
:1031C00009F08FCE8093E3058CCE0F3FECE51E0710
:1031D00009F447C040F101151D4509F082CE8091E8
:1031E000E305982F909591708E7F892B90FB81F944
:1031F000E9CF8091E205816091CF8091E205846002
:103200008DCF8091E3058160DDCF8091E305826001
:10321000D9CF8091E205806481CF0E94F60E809123
:10322000E20580687BCF8091E3058360CBCF8091FE
:10323000E2058E7F73CF8091E3058D7FC3CF8091B0
:10324000E2058F7E6BCF8091E2058F7D67CF0E9474
:10325000F60E8091E2058F7761CF8091E205837F42
:103260005DCF8091E3058C7FADCF0E94F60E9091EB
:10327000E205892F97FB87F9805850CF06313CE54E
:10328000130709F063C38091BF058A7A91E009F4BE
:1032900090E090934805811106C089E20E943507AD
:1032A0000E94C5065BCB85E3F9CF85E34CC30E9442
:1032B000620C54CB8091140691E089278093140608
:1032C0004DCBF701008111818823C9F1C8010E940B
:1032D000120AD82E682FC8010E949207B8018D2DBE
:1032E0000E946F088C01B82EF701C580C2943FE0A0
:1032F000C322D280D1101092BE058091BC05877088
:1033000079F0DD2069F080E2800F883048F082E0BB
:103310000E94AE0E8091BC058770AA24A3948111EF
:10332000A12C912E92942FE09222FBE0F91508F443
:1033300040C0E92DF0E0ED58F64D0C940325C8018E
:103340000E946907D82ECACF212F2F70C22E107F5E
:1033500019F0C29490EFC922DD20C9F0CC2069F0A9
:1033600080E2800F883010F0B1100BC08091BF0553
:10337000C82AC092BF050E94C506802F0E945E1316
:1033800018C08091BE05C82AC092BE05F4CF802F18
:103390000E94F512CC2069F0C094005E083010F055
:1033A000B11028C08091BF05C822C092BF050E94FD
:1033B000C506292D2850330B2430310510F40E9406
:1033C0002008AA2009F4CACA8091BC0580FDC6CA9B
:1033D000F70112828595859585950E94C60EC701D5
:1033E0000E9489148091BC058595859585950E94DC
:1033F0008B0EB4CA8091BE05C822C092BE05D7CF3D
:10340000312F3F70832E107F103219F0829480EF9D
:103410008822BB2041F061E0B61631F1DD2079F160
:10342000CC2041F1AACFDD2091F09091C005882DEC
:10343000892BC11003C00E94EA07BBCF71E0C712FD
:10344000FACF981709F4B5CF8093C005B2CFC11059
:1034500006C00E94BF06882D0E94DF07AACF81E028
:10346000C81609F4A6CFF5CFDD2031F091E09C1508
:1034700008F49FCF882DDFCFC1109BCFECCFCC209D
:1034800051F3093349F4EFEFF7EE23E0E150F04058
:103490002040E1F700C00000802F0E94F51289CF84
:1034A000812F86958695837061F0813009F081CFF8
:1034B000C8019370D11002C090E080E00E94F40730
:1034C00078CFC8019370D11002C090E080E00E94D4
:1034D0000A086FCFDD2009F1053F99F0063FB9F0EA
:1034E000043F49F48091490590914A058160909389
:1034F0004A0580934905802F0E94E0050E941F0E17
:1035000058CF8091490590914A058260F0CF809113
:10351000490590914A058460EACF053F89F0063F4E
:10352000A9F0043F49F48091490590914A058E7FA6
:1035300090934A0580934905802F0E941B05DECF9A
:103540008091490590914A058D7FF2CF8091490580
:1035500090914A058B7FECCF812F837009F066C074
:10356000D11027CF802F829586958770880F880F7E
:10357000602F6F70462E512C712C612C082E04C0C8
:10358000440C551C661C771C0A94D2F740E050E0AE
:10359000BA0104FF0FC04FE050E060E070E004C0EB
:1035A000440F551F661F771F8A95D2F74095509597
:1035B00060957095812F869586958370823019F17C
:1035C000D8F40091C1051091C2052091C305309136
:1035D000C405813069F04429552966297729CB0132
:1035E000BA0160237123822393230E94EC0EE1CE63
:1035F000402A512A622A732ACB01BA01642975290B
:1036000086299729F2CF44295529662977290091DF
:10361000C1051091C2052091C3053091C405CB01AD
:10362000BA016027712782279327DFCF8695DD2097
:1036300011F0812F8170882309F4BBCE802F8295F1
:1036400086958770880F880F602F6F70462E512CDB
:10365000712C612C082E04C0440C551C661C771C70
:103660000A94D2F740E050E0BA0104FF0FC04FE0E7
:1036700050E060E070E004C0440F551F661F771FE4
:103680008A95D2F74095509560957095812F8695D3
:1036900086958370823019F1D8F400910E0610914E
:1036A0000F062091100630911106813069F04429EF
:1036B000552966297729CB01BA016023712382231A
:1036C00093230E94500E75CE402A512A622A732AF3
:1036D000CB01BA016429752986299729F2CF44299B
:1036E00055296629772900910E0610910F06209121
:1036F000100630911106CB01BA016027712782278D
:103700009327DFCF1F70DD2029F0812F0E94C60E86
:10371000802F91CE802F0E94DF07812F0E948B0E79
:1037200048CE802F32EFB31609F44EC03B1578F027
:1037300060EFB61619F171EFB71609F43DC0DD2040
:1037400009F464C0C11019CE812F8F713AC093EF74
:10375000B91609F43EC0E4EFBE12F1CFDD2009F442
:103760004AC01F71812F0E94C60E28E0129FC0011F
:10377000112483608093BC05812F23C0DD20B9F024
:10378000C11017CE1F7161E070E080E090E004C0CE
:10379000660F771F881F991F1A95D2F700910E06A2
:1037A00010910F062091100630911106A6CFF1E07E
:1037B000FC1508F4FECDE6CF812F8F71DD2009F4D2
:1037C000ADCF0E94C60EF5CD812F8F71DD20C9F3DC
:1037D000A5CFDD2069F01F7161E070E080E090E02E
:1037E00004C0660F771F881F991F1A95D2F769CFFB
:1037F0000E94E70EDECD81E00E94AE0E31E03C1566
:1038000008F0D7CD82E00E94AE0ED3CDCC2059F087
:10381000893309F041CE6FEF77EE83E0615070405D
:103820008040E1F737CE812F8F7178CF92EFB916B4
:10383000D1F19B1500F1E0EFBE1649F1F1EFBF1693
:10384000D1F180914B05CC2009F441C0882341F08F
:1038500080914C0591E0892780934C0510924B058F
:10386000802FD1108BCD0E94F51286E0F7011192C6
:103870008A95E9F79ECD24EFB216C1F0B21688F012
:1038800035EFB312DECFD11094CD81E007C0DD203B
:1038900009F48FCD80914C0591E0892780934C05E8
:1038A00088CD81E0D826D0924C0583CDD11081CD32
:1038B00010924C057ECDDD2039F080914B05882398
:1038C00049F310924B0575CDCC2021F372CD88239E
:1038D00009F46FCDD1106DCD80914C0591E0892711
:1038E00080934C05EECFF70182811982811143CA82
:1038F00082E18A83F70180818B8381818C838EEFC3
:103900008D8365E0C6010E94030575C885E09E01B0
:103910002F5F3F4F6901D90101900D928A95E1F720
:10392000F701228189819A8121112FC80E9469079C
:10393000082F33C806311C4509F0C3CC80914805D7
:103940008111B3CC89E20E940A07AACC0E3D2CE576
:10395000120709F4ACCC08303DE5130709F4AACCF2
:1039600001151C4509F0ADCC0E94F60E6FEF74E313
:103970008CE0615070408040E1F700C00000F89496
:1039800081E08093E00080E28093D8001092C9002B
:10399000EFE1FEE43197F1F700C000001DBA10928C
:1039A00068001CBC10BE1FBA10927A0010926E0004
:1039B00010926F0010927100109272001092C90064
:1039C0001092BC0014B817B81AB81DB810BA1092EB
:1039D000BC0015B818B81BB81EB811BA0C94003F3B
:1039E0000C94AE141F93CF93DF9380915205807F88
:1039F000C1F480914F058823A1F080918405C09186
:103A0000530560914D0570914E05409150055091C0
:103A10005105D62FD723DA01A095B09516E0C8132B
:103A200004C0DF91CF911F91089590E04115510599
:103A300011F0DF3F31F401968770F1CF2A0F3B1F61
:103A400017C0189FF001199FF00D1124EC5AFA4F7E
:103A500021812713F0CF20812613EDCF2281211160
:103A6000EACF238134812417350740F3241B350B1B
:103A7000283C310500F7209152052F7020612093DA
:103A8000520526E0289FF001299FF00D1124E75AE6
:103A9000FA4F80818F70806180838DE495E00E9471
:103AA0008914DF91CF911F910C94C007BF92CF92E0
:103AB000DF92EF92FF920F931F93CF93DF93CDB7D7
:103AC000DEB761970FB6F894DEBF0FBECDBF8C0195
:103AD00085E0F801DE011D9601900D928A95E1F7CF
:103AE000D8012C9111963C9111971296EC90129757
:103AF0008091500590915105009709F463C1409160
:103B00004D0550914E05642F65236F3F09F45AC14E
:103B10001396CD90DC90B0904F05BB2009F413C1F3
:103B2000C816D906C0F1F601E81BF90BCF01FF2436
:103B3000F394883C910508F0F12C80915205982F60
:103B4000907FFF2009F4C1C091117DC0FE2C53135A
:103B500027C0421325C0E11023C08F70806180937D
:103B600052058DE495E00E94891480915205D80198
:103B700015968C938F2D61960FB6F894DEBF0FBE0D
:103B8000CDBFDF91CF911F910F91FF90EF90DF900C
:103B9000CF90BF900895809590958C0D9D1DC7CFB7
:103BA000CD2829F0822F83238F3F09F035C180E093
:103BB000B82FB170DB2E80FF3CC08091840540910E
:103BC000530556E0841315C02D873E878D859E854D
:103BD0000E94540A292F22952F702230F0F02430B1
:103BE00018F59F70F1F0F8019581907FD1F4D12CF8
:103BF0001EC090E0589FF001599FF00D1124EC5A1F
:103C0000FA4F6181361306C06081261303C06281BA
:103C1000E6120FC001968770D5CF9F7011F08823F0
:103C200031F3805E883018F3C8010E948914FD2C9E
:103C3000A1CFEE2009F49ECF809152058160809340
:103C40005205F12C97CF531313C0421311C0E1104A
:103C50000FC0D80115968C93C8010E94891486E084
:103C6000F801ADE4B5E001900D928A95E1F782CFBD
:103C70002D873E878D859E850E945E0A882309F1E7
:103C8000EE20F9F080915205803270F020914D05C0
:103C900030914E0538872F831986DB86CA868C873C
:103CA000CE0107960E94891486E0F801ADE4B5E0E4
:103CB00001900D928A95E1F70E94F21CFF24F39483
:103CC00059CFC8010E948914F9CF91110CC08DE41D
:103CD00095E00E94891486E0EDE4F5E0DF011D9295
:103CE0008A95E9F747CF531312C0421310C0E11071
:103CF0000EC0F8018583C8010E948914EDE4F5E047
:103D000086E0DF011D928A95E9F7FB2C33CF2D87E2
:103D10003E878D859E850E945E0A882391F2EE2063
:103D200081F280915205803208F4BECF20914D057A
:103D300030914E053A8329831B82DD82CC828E83AB
:103D4000CE010196AFCFC816D90640F0C81AD90ADD
:103D5000B8ECCB16D10448F0F12CBDCF80959095EE
:103D60008C0D9D1D883C9105B8F7FE2CEE2009F4C2
:103D7000A8CF531316C0421314C08091520580FD82
:103D80006ECF982F907F09F46ACFF8018583903F1A
:103D900009F462CF982F907F905F8F70892B858375
:103DA0005BCF2D873E878D859E850E945E0A81119F
:103DB0007BCF80915205816080935205C8010E949B
:103DC0008914D8CEEE2009F47CCF2D873E878D85CF
:103DD0009E850E945E0AF82E882309F472CF86E041
:103DE000F801ADE4B5E001900D928A95E1F780917C
:103DF0004D0590914E050E94540A92959F70963001
:103E000041F480914C0591E0892780934C05909373
:103E10004B050E94F21CAECE81E08E25C9CE1F93C9
:103E2000CF93DF93CDB7DEB767970FB6F894DEBFB9
:103E30000FBECDBF6D8B7E8B8F8B8E899F89892B1B
:103E4000E1F0852F84238F3F09F098C05FEF4FEF9B
:103E500014C030914C05332309F44EC0E42FF0E038
:103E600036E0539FE00DF11D1124EE0FFF1FE55DBD
:103E7000FE4F40815181822B8C931A8A198A4B8B79
:103E80005C8B85E0FE017396DE011D9601900D921C
:103E90008A95E1F786E0FE013D96DE0117960190D6
:103EA0000D928A95E1F7CE0107960E94561D811169
:103EB00012C086E0FE013796DE01119601900D9248
:103EC0008A95E1F78A859B85892B29F08F819885D2
:103ED00089238F3FC9F516E08091840590915305A1
:103EE000891320C067960FB6F894DEBF0FBECDBF12
:103EF000DF91CF911F91089580958223BDCF96E0E9
:103F0000929FD001939FB00D1124AC5ABA4FFE017D
:103F1000319601900D929A95E1F7809353050E9496
:103F2000C007D9CF819FC00111248C5A9A4F0E949B
:103F3000561D8823B9F28091840590E00196877020
:103F4000992780938405C8CF2091530530E0C9019B
:103F5000019687709927409184054817190679F6CC
:103F60000E94F60E109253051092840586E0EDE44F
:103F7000F5E0DF011D928A95E9F7ADCF81E090E091
:103F8000042E01C0880F0A94EAF7A52FB0E0AF5CB9
:103F9000BD4F2C913D8931115CCF322F38235BCF3F
:103FA0008F929F92AF92BF92CF92DF92EF92FF9249
:103FB0000F931F93CF93DF9380910D0190910E018A
:103FC000892B91F0809129028F5F809329028111C2
:103FD0000BC00E942A0D90E090930E0180930D017A
:103FE000892B11F40E94E20B04ED15E07801C0E08A
:103FF000912C37E0C32ECC0E8C2F0E94D60C8C2D2A
:104000000E94D60C8C2F0E94A10DD7019D917D019D
:10401000D12C891729F0FD0131978083DD24D394B9
:104020008C2D0E94A10DF7019681891709F465C0B6
:10403000868381E08D29982A0E94020BCF5FC730CA
:10404000C1F60E94130E6AEF70E00E94DB24882EF6
:10405000D0912502DD2309F4A2C010922502E0913F
:10406000CA05F091CB057F012EE0E20EF11C40E085
:10407000CBEF2AEFC22ED12C51915B3F81F0652FFF
:1040800070E0282D392F8517D0F1261B370B2E31E4
:104090003105DCF19F0121503109D901CC93EE1596
:1040A000FF0551F740932502911002C0411179C0DC
:1040B00010922402A091CA05B091CB05209125024F
:1040C000E7EEF5E090E04191E80139918E01431768
:1040D00051F04C914B3FD9F48C93AF0141505109B1
:1040E000EA01388321E01196D5E0E53FFD0759F755
:1040F000209325029093240258C080E09BCFD601E4
:10410000A61BB70B2A0F3B1FC2CF4D2FC8CF91E084
:10411000EACF9170892B09F459C0809127029091C0
:1041200028028130984780F01092140660910E06A4
:1041300070910F0680911006909111060E94CE0A90
:104140001092280210922702809127029091280253
:1041500001969093280280932702892DDF91CF91B9
:104160001F910F91FF90EF90DF90CF90BF90AF9095
:104170009F908F9008950E94C80A2EC0892B69F3E2
:10418000109228021092270260910E0670910F067D
:1041900080911006909111060E94CE0ADECF9110F8
:1041A00087CF90912402911183CF80912702909123
:1041B000280220911406222309F3009709F0A9CFC1
:1041C0000E94BF0A0E94BC0A0E94B90AC09126023E
:1041D000CC2389F20E94BC0A81E0C827C093260242
:1041E0009CCFCDB7DEB7C955D1090FB6F894DEBF65
:1041F0000FBECDBF84B7877F84BF0FB6F894A89554
:1042000080916000886180936000109260000FBE12
:1042100080E890E00FB6F89480936100909361007D
:104220000FBE85B7806885BF85B7806885BF0E944F
:104230000D030E94DA038091E20084608093E20023
:10424000789480913A068823A1F01091E9001F70BC
:104250009091EC00892F817090FD80E8182B1092CE
:10426000E9008091E80083FD0E940B0F1F701093FE
:10427000E90082E084BD93E095BD9AEF97BD8093FD
:104280006E000E942A0D90E090930E0180930D0124
:104290000E94020B0E94110BA4EDB5E085EF95E0A2
:1042A000E7EEF5E011921D928E179F07D9F78EE089
:1042B00090E00E9488258093CA059093CB05FC016D
:1042C0000E962BEF2193E817F907E1F790E080E0D5
:1042D0000E944E258F3E9E4F11F00E94620C8CE092
:1042E00090E00E94402590E0B0E0A0E08093CC05F3
:1042F0009093CD05A093CE05B093CF0589EA809326
:10430000800089E08093810024982C983F988AB19E
:104310008F7C8AB96E98479A8BB180638BB9769AF5
:104320008FE090E00E9448256093D0057093D105FE
:104330008093D2059093D30567704FEF649FB001CF
:104340001124759567957595679577277093890002
:104350006093880070938B0060938A0070938D0047
:1043600060938C000E94E20B90E080E00E944E255A
:104370008F3E9E4F11F00E94620C82E090E00E94FE
:1043800040258093FF050E94180B9093E3058093CE
:10439000E20583E090E00E944025682F70E090E005
:1043A00080E00E94EC0E8FE091E09093E505809311
:1043B000E405EE24EA948EEFF82E93E0492E21E4F2
:1043C000C22ED12CCC0EDD1EF2E0CF0ED11C30E17E
:1043D000732E42E1642E58E1A52EB12C60E4562ED6
:1043E00080913A06853009F4A1C00E94D01FA0E058
:1043F000B6E0E7EEF5E010E000E0302F81912D917E
:10440000281709F4E0C090E0992493942827422FBC
:10441000492109F4D3C061969FAF619762963FAF7F
:104420006297892191E009F490E063969FAF6397CA
:104430000E94130E8160782F65969FAF8EAF6597AF
:1044400061964FAD619762965FAD629763966FAD6F
:10445000639765968FAD65970E940F1FF801E05036
:10446000FA4F8081982690828091FC059091FD05FD
:104470000E9448069C019091FB05992319F0243174
:10448000310578F02091F7059090F8051091F90525
:104490000091FA052111BDC0812F8929802B09F0D7
:1044A000A6C10E9420089091FE05891721F00E9464
:1044B00020088093FE0580913A06843009F090CF61
:1044C0008093E9008091E80082FF8ACF8091E80024
:1044D00090E085FF06C00E942C03882309F4FDC0EC
:1044E00091E08091E8008B778093E800992309F4AC
:1044F00077CF198111110DC180911406882309F419
:1045000022C11092140681E08093130622961FAEFA
:10451000229723961FAE23972496FFAE249763E03D
:10452000CE018F5B9F4F0E9403055ACF80913A06C0
:10453000843009F11092E6050FB6F894A895A09280
:1045400060000FBE5092600083B7817F846083BF9C
:1045500083B7816083BF7894889583B78E7F83BF4C
:104560000FB6F894A89580916000886180936000F0
:10457000109260000FBE80913906882309F430CF75
:104580000E942A0D90E090930E0180930D010E94ED
:10459000020B0E94110BE7EEF5E0119225E0E53FDA
:1045A000F207D9F70E94D01FE7EEF5E08191811163
:1045B0000AC145E0E53FF407C9F712CF9F5F990CA8
:1045C000963009F024CF0F5F1F4F0E30110509F010
:1045D00014CF6696EFAE66976796EFAE67976896CC
:1045E0001FAE68970E94130E8160782F6A969FAF66
:1045F0008EAF6A9766964FAD669767965FAD679781
:1046000068966FAD68976A968FAD6A970E940F1F84
:104610002BCF9F3F19F09F5F9093FB05121624F458
:104620000E94BC058093F7058091F70587FF05C0C0
:104630000E94BC0581958093F705191424F40E940B
:10464000BC058093F8058091F80587FF05C00E949E
:10465000BC0581958093F8053091F7053323A1F0CF
:104660002091F805222381F045EB3403C001112489
:10467000992359F19093F70545EB240390011124F8
:10468000332339F13093F805111624F40E949A056A
:104690008093F9058091F90587FF05C00E949A056E
:1046A00081958093F905101624F40E949A05809351
:1046B000FA058091FA0587FF05C00E949A05819549
:1046C0008093FA050E941F0EECCE81E08093F705DF
:1046D000D3CF81E08093F805D7CF00E410E0CE017E
:1046E00001964C018091E80085FD0AC08091E800A8
:1046F0008B778093E8000E942C03882399F3F0CEF7
:104700008091F100F40181934F010150110951F79B
:10471000E7CE1130C1F422961FAE229723961FAF29
:1047200023978CE0EFE1F1E0D60101900D928A959C
:10473000E1F76096FFAE60976FE0CE018F5B9F4F11
:104740000E9403054DCE809113068823C1F11230DB
:1047500041F01330F1F081E022968FAF229761E0B3
:10476000DFCE60910E0670910F0680911006909139
:1047700011060E94720622961FAE229723961FAF43
:10478000239724968FAF24972596FFAE259764E054
:10479000C7CE8A81813041F0882341F08230D9F63A
:1047A00081E08093120602C01092120622961FAE7C
:1047B000229723964FAE239780911206E2CF22963E
:1047C000EFAE2297CCCF79BC69BC09B400FEFDCF17
:1047D0008091D8008F7D8093D8008091E000826026
:1047E0008093E0008091E00081FDFCCFF9CD9F3FF8
:1047F00009F011CF22CF1F921FB61F9211248F9361
:104800009F93AF93BF938091E605811113C0809170
:10481000C5059091C605A091C705B091C805419600
:10482000A11DB11D8093C5059093C605A093C70532
:10483000B093C805BF91AF919F918F911F901FBEFC
:104840001F9018951092B9008CE08093B8000895DD
:10485000EF92FF920F931F93CF93DF93182FEB01EB
:104860001092BC0084EA8093BC000E94130E7C016D
:104870008091BC0087FF27C08091B900887F883075
:1048800029F08091B900887F8031D9F51093BB0061
:1048900084E88093BC000E94130E8C018091BC00C0
:1048A00087FF24C02091B900287F90E080E0283164
:1048B000B1F081E090E0203411F490E080E0919537
:1048C000819591090CC0CF3FDC0791F20E94130E35
:1048D0008E199F098C179D0758F28EEF9FEFDF917D
:1048E000CF911F910F91FF90EF900895CF3FDC077C
:1048F000A9F20E94130E801B910B8C179D0770F27A
:10490000ECCF8FEF9FEFEBCF0F931F93CF93DF93FE
:10491000EB018093BB0084E88093BC000E94130EDF
:104920008C018091BC0087FF11C02091B900287FC5
:1049300081E090E0283211F490E080E0919581953B
:104940009109DF91CF911F910F910895CF3FDC071F
:1049500041F30E94130E801B910B8C179D0708F3E7
:104960008EEF9FEFEECF0F931F93CF93DF93EC016A
:1049700084E88093BC000E94130E8C018091BC00DF
:1049800087FF08C08091BB0090E0DF91CF911F911D
:104990000F910895CF3FDC0789F30E94130E801B0F
:1049A000910B8C179D0750F38EEF9FEFEECF84E9AC
:1049B0008093BC000895AA1BBB1B51E107C0AA1F2E
:1049C000BB1FA617B70710F0A61BB70B881F991FB0
:1049D0005A95A9F780959095BC01CD01089597FB54
:1049E000072E16F4009407D077FD09D00E94DB242F
:1049F00007FC05D03EF4909581959F4F08957095E2
:104A000061957F4F0895EE0FFF1F0590F491E02D03
:104A100009942F923F924F925F926F927F928F9262
:104A20009F92AF92BF92CF92DF92EF92FF920F933D
:104A30001F93CF93DF93CDB7DEB7CA1BDB0B0FB647
:104A4000F894DEBF0FBECDBF09942A883988488804
:104A50005F846E847D848C849B84AA84B984C8849A
:104A6000DF80EE80FD800C811B81AA81B981CE0F91
:104A7000D11D0FB6F894DEBF0FBECDBFED01089576
:104A8000F999FECF92BD81BDF89A992780B5089516
:104A9000A6E1B0E044E050E00C947A25A8E1B0E053
:104AA00042E050E00C947A25262FF999FECF92BD72
:104AB00081BDF89A019700B4021639F01FBA20BDE3
:104AC0000FB6F894FA9AF99A0FBE08950396272F15
:104AD0000E9455250E945425252F0E945525242FDC
:104AE0000C9455250196272F0E9455250C9454258A
:104AF000DC01CB01FC01F999FECF06C0F2BDE1BD9E
:104B0000F89A319600B40D9241505040B8F708958C
:104B10000F931F93CF93DF938230910510F482E0BF
:104B200090E0E0914606F091470630E020E0B0E0EA
:104B3000A0E0309799F42115310509F447C0281BEE
:104B4000390B24303105C0F58A819B8161157105CF
:104B500071F1FB0193838283FE0111C04081518179
:104B60000281138148175907F8F04817590799F43B
:104B7000109761F012960C93129713961C9332962D
:104B8000CF01DF91CF911F910F91089500934606B9
:104B900010934706F4CF2115310519F0421753073A
:104BA00018F49A01BD01EF01DF01F801C2CF909323
:104BB000470680934606D0CFFE01E20FF31F819394
:104BC00091932250310939832883DACF209144060A
:104BD00030914506232B41F42091020130910301CD
:104BE0003093450620934406209100013091010145
:104BF0002115310541F42DB73EB740910401509184
:104C00000501241B350B409144065091450642177F
:104C1000530708F0B5CF241B350B2817390708F4C4
:104C2000AFCFBC016E5F7F4F2617370708F4A8CFC0
:104C3000640F751F7093450660934406FA018193D3
:104C400091939ECFCF93DF930097E9F0FC013297C9
:104C500013821282C0914606D0914706DE0130E0F1
:104C600020E02097A1F420813181820F931F2091B1
:104C70004406309145062817390709F067C0F093BC
:104C80004506E0934406DF91CF910895DA01AE170F
:104C9000BF0708F040C012964D915C9113979D019B
:104CA0004115510599F7D9011396FC93EE9312978C
:104CB0004D915D91A40FB51FEA17FB0779F4808130
:104CC00091810296840F951FD90111969C938E9322
:104CD0008281938113969C938E931297B0E0A0E00B
:104CE0008A819B810097B9F5FE0181919191E80F2E
:104CF000F91F80914406909145068E179F0719F67B
:104D0000109761F51092470610924606D09345061B
:104D1000C0934406B8CFB383A28340815181840FEE
:104D2000951FA817B90771F44E5F5F4F8D919C9145
:104D30001197480F591F5183408312968D919C9172
:104D4000938382832115310509F0ADCFF093470697
:104D5000E093460698CFDE01EC01C2CF13961C9279
:104D60001E921297D3CFAEE0B0E0E9EBF6E20C94DE
:104D700017250D891E898F89988D26E02C831A832B
:104D8000098397FF02C080E090E801979E838D839E
:104D9000AE01455E5F4F698D7A8DCE0101960E940E
:104DA000E3264D815E8157FD0AC02F813885421769
:104DB00053070CF49A01020F131FF80110822E966C
:104DC000E4E00C943325ABE0B0E0E9EEF6E20C94BD
:104DD00009257C013B018A01FC011782168283812F
:104DE00081FFB9C19AE0292ECE0101965C01F7013D
:104DF0009381F30193FD859193FF81913F01882376
:104E000009F446C1853239F493FD859193FF819170
:104E10003F01853229F4B70190E00E94C428E7CF12
:104E2000912C412C512CFFE1F51538F08B3209F112
:104E300088F4803201F1833221F157FC3AC020ED31
:104E4000280F2A3040F556FE1FC0929C200D1124D9
:104E5000922E06C08D3291F0803379F7689450F825
:104E6000F30193FD859193FF81913F018111DBCF88
:104E700020C0689451F8689452F8F2CF689453F8BF
:104E8000EFCF689454F8ECCF429C200D1124422EB1
:104E9000689455F8E5CF8E3229F456FCF9C0689431
:104EA00056F8DECF8C3619F4689457F8D9CF883687
:104EB000B9F2982F9F7D95549330C0F08336A1F1BD
:104EC0008337C1F1833509F05BC0F801C190D190FF
:104ED0008F01692D70E056FC02C06FEF7FEFC601B5
:104EE0000E94AE284C01689457F80AC00C5F1F4F0F
:104EF0002FE3298388248394912C6501E89457F843
:104F000053FC04C04814190409F018F5342C81141A
:104F1000910431F5332009F46ACFB70180E290E0C3
:104F20000E94C4283A94F6CFF801808189830E5FED
:104F30001F4FE0CFF801C190D1908F01692D70E033
:104F400056FC02C06FEF7FEFC6010E94B9284C01EA
:104F5000D5CFB70180E290E00E94C4284A94D2CF16
:104F6000F60157FC859157FE81916F01B70190E0E2
:104F70000E94C42831103A94F1E08F1A9108C7CFEB
:104F8000843619F0893609F074C0F80157FE6AC0FA
:104F900061917191819191918F01252D2F76D22E62
:104FA00097FF09C090958095709561957F4F8F4FC1
:104FB0009F4F6894D7F82AE030E0A5010E94F428BA
:104FC000C82ECA188C2C5D2CD6FE0CC0E89450F864
:104FD000C91440F4D4FE05C0D2FC03C0FD2DFE7EF2
:104FE0005F2E892C54FE8FC0FE01EC0DF11D8081D7
:104FF000803309F081C0252D297E522E852D8870A1
:10500000382E53FC8FC050FE89C09C2C841418F499
:105010004C0C942C981854FE8BC0B70180E390E0A0
:105020000E94C42852FE09C088E790E051FE02C0E9
:1050300088E590E0B7010E94C428C91408F484C030
:10504000CA94D12C9FEFC91AD90ACA0CDB1CF601ED
:1050500082916F01B70190E00E94C428AC14BD0496
:10506000B1F758CF61917191072E000C880B990B05
:1050700093CFD52CE894D4F82AE030E0853739F185
:10508000952D997FD92E8F3601F148F48835A9F0F6
:10509000F701868197812B96E2E10C9425258037D4
:1050A00049F08837A9F7D4FE02C06894D2F820E10D
:1050B00030E00DC06894D4F8F6CF54FE03C0E92F59
:1050C000E660DE2E20E132E002C028E030E0F801A8
:1050D000D7FE0DC061917191819191918F01A501D0
:1050E0000E94F428C82ECA18E894D7F86BCF6191B3
:1050F000719190E080E0F2CF52FC02C083947ECFA9
:10510000839483947BCF852D867809F477CFF6CF6F
:10511000B70180E290E00E94C42883948414C0F315
:10512000312C79CF342C3818841408F474CFF8CF8C
:10513000852D867809F481CF8BE251FE80E257FC01
:105140008DE2B70190E077CFB70180E390E00E9455
:10515000C4289A9472CF8FEF9FEF9DCFFC010590EA
:10516000615070400110D8F7809590958E0F9F1F69
:105170000895FC016150704001900110D8F78095AE
:1051800090958E0F9F1F08950F931F93CF93DF93DA
:10519000182F092FEB018B8181FD09C01FEF0FEF45
:1051A000812F902FDF91CF911F910F91089582FF52
:1051B00014C02E813F818C819D81281739073CF4D2
:1051C000E881F981CF0101969983888310838E81CC
:1051D0009F8101969F838E83E3CFE885F985812F98
:1051E0000995892BA1F3DACFFA01AA27283051F1CA
:1051F000203181F1E8946F936E7F6E5F7F4F8F4F08
:105200009F4FAF4FB1E03ED0B4E03CD0670F781F66
:10521000891F9A1FA11D680F791F8A1F911DA11D4B
:105220006A0F711D811D911DA11D20D009F4689484
:105230003F912AE0269F11243019305D3193DEF62C
:10524000CF010895462F4770405D4193B3E00FD0E2
:10525000C9F7F6CF462F4F70405D4A3318F0495DCD
:1052600031FD4052419302D0A9F7EACFB4E0A695B0
:105270009795879577956795BA95C9F700976105D2
:10528000710508959B01AC010A2E06945795479528
:1052900037952795BA95C9F7620F731F841F951F1D
:1052A000A01D0895F894FFCF6D0A6D0A760A760A5C
:1052B000780A760A760A760A6D0A6D0A7D0A760AF7
:1052C000760A7D0AE90AF50AFA0AF30AF80AFF0AD9
:1052D000FD0A2A105210BE115210BE118510A610E0
:1052E000BE116F117C11A419A419001A001A501ACA
:0E52F0006A1A161CD919AC1A821B911B911B4D
:1052FE0000004806200039053F02018C0020000006
:10530E00059C0B710B6B0B590B010A25640A004FA0
:10531E0076646E642F4A7667573700000D010D02D2
:10532E000D030D040D050D000C010C020C030C04F5
:10533E000C050C000B010B020B030B040B050B00F1
:10534E000A010A020A030A040A050A0009010902EF
:10535E0009030904090509000801080208030804E5
:10536E0008050800070107020703070407050700E1
:10537E0006010602060306040605060005010502DF
:10538E0005030504050505000401040204030404D5
:10539E0004050400030103020303030403050300D1
:1053AE0002010202020302040205020001010102CF
:1053BE0001030104010501000001000200030004C5
:1053CE00000500818283E200E900EA00B500B60024
:1053DE00B700CD008301CC008A0192019401210215
:1053EE00230224022502260227022A02B300B40059
:0453FE006F007000CC
:00000001FF
